{
  "_format": "hh-sol-artifact-1",
  "contractName": "NFTContract",
  "sourceName": "src/blockchain/hardhat/contracts/NFTContract.sol",
  "abi": [
    {
      "inputs": [
        {
          "internalType": "string",
          "name": "_name",
          "type": "string"
        },
        {
          "internalType": "string",
          "name": "_symbol",
          "type": "string"
        }
      ],
      "stateMutability": "nonpayable",
      "type": "constructor"
    },
    {
      "anonymous": false,
      "inputs": [
        {
          "indexed": true,
          "internalType": "address",
          "name": "owner",
          "type": "address"
        },
        {
          "indexed": true,
          "internalType": "address",
          "name": "approved",
          "type": "address"
        },
        {
          "indexed": true,
          "internalType": "uint256",
          "name": "tokenId",
          "type": "uint256"
        }
      ],
      "name": "Approval",
      "type": "event"
    },
    {
      "anonymous": false,
      "inputs": [
        {
          "indexed": true,
          "internalType": "address",
          "name": "owner",
          "type": "address"
        },
        {
          "indexed": true,
          "internalType": "address",
          "name": "operator",
          "type": "address"
        },
        {
          "indexed": false,
          "internalType": "bool",
          "name": "approved",
          "type": "bool"
        }
      ],
      "name": "ApprovalForAll",
      "type": "event"
    },
    {
      "anonymous": false,
      "inputs": [
        {
          "indexed": true,
          "internalType": "address",
          "name": "previousOwner",
          "type": "address"
        },
        {
          "indexed": true,
          "internalType": "address",
          "name": "newOwner",
          "type": "address"
        }
      ],
      "name": "OwnershipTransferred",
      "type": "event"
    },
    {
      "anonymous": false,
      "inputs": [
        {
          "indexed": true,
          "internalType": "address",
          "name": "from",
          "type": "address"
        },
        {
          "indexed": true,
          "internalType": "address",
          "name": "to",
          "type": "address"
        },
        {
          "indexed": true,
          "internalType": "uint256",
          "name": "tokenId",
          "type": "uint256"
        }
      ],
      "name": "Transfer",
      "type": "event"
    },
    {
      "inputs": [],
      "name": "account",
      "outputs": [
        {
          "internalType": "address",
          "name": "",
          "type": "address"
        }
      ],
      "stateMutability": "view",
      "type": "function"
    },
    {
      "inputs": [
        {
          "internalType": "address",
          "name": "to",
          "type": "address"
        },
        {
          "internalType": "uint256",
          "name": "tokenId",
          "type": "uint256"
        }
      ],
      "name": "approve",
      "outputs": [],
      "stateMutability": "nonpayable",
      "type": "function"
    },
    {
      "inputs": [
        {
          "internalType": "address",
          "name": "owner",
          "type": "address"
        }
      ],
      "name": "balanceOf",
      "outputs": [
        {
          "internalType": "uint256",
          "name": "",
          "type": "uint256"
        }
      ],
      "stateMutability": "view",
      "type": "function"
    },
    {
      "inputs": [
        {
          "internalType": "uint256",
          "name": "tokenId",
          "type": "uint256"
        }
      ],
      "name": "getApproved",
      "outputs": [
        {
          "internalType": "address",
          "name": "",
          "type": "address"
        }
      ],
      "stateMutability": "view",
      "type": "function"
    },
    {
      "inputs": [
        {
          "internalType": "address",
          "name": "owner",
          "type": "address"
        },
        {
          "internalType": "address",
          "name": "operator",
          "type": "address"
        }
      ],
      "name": "isApprovedForAll",
      "outputs": [
        {
          "internalType": "bool",
          "name": "",
          "type": "bool"
        }
      ],
      "stateMutability": "view",
      "type": "function"
    },
    {
      "inputs": [
        {
          "internalType": "string",
          "name": "_tokenURI",
          "type": "string"
        }
      ],
      "name": "mint",
      "outputs": [
        {
          "internalType": "uint256",
          "name": "",
          "type": "uint256"
        }
      ],
      "stateMutability": "nonpayable",
      "type": "function"
    },
    {
      "inputs": [],
      "name": "name",
      "outputs": [
        {
          "internalType": "string",
          "name": "",
          "type": "string"
        }
      ],
      "stateMutability": "view",
      "type": "function"
    },
    {
      "inputs": [],
      "name": "owner",
      "outputs": [
        {
          "internalType": "address",
          "name": "",
          "type": "address"
        }
      ],
      "stateMutability": "view",
      "type": "function"
    },
    {
      "inputs": [
        {
          "internalType": "uint256",
          "name": "tokenId",
          "type": "uint256"
        }
      ],
      "name": "ownerOf",
      "outputs": [
        {
          "internalType": "address",
          "name": "",
          "type": "address"
        }
      ],
      "stateMutability": "view",
      "type": "function"
    },
    {
      "inputs": [],
      "name": "renounceOwnership",
      "outputs": [],
      "stateMutability": "nonpayable",
      "type": "function"
    },
    {
      "inputs": [
        {
          "internalType": "address",
          "name": "from",
          "type": "address"
        },
        {
          "internalType": "address",
          "name": "to",
          "type": "address"
        },
        {
          "internalType": "uint256",
          "name": "tokenId",
          "type": "uint256"
        }
      ],
      "name": "safeTransferFrom",
      "outputs": [],
      "stateMutability": "nonpayable",
      "type": "function"
    },
    {
      "inputs": [
        {
          "internalType": "address",
          "name": "from",
          "type": "address"
        },
        {
          "internalType": "address",
          "name": "to",
          "type": "address"
        },
        {
          "internalType": "uint256",
          "name": "tokenId",
          "type": "uint256"
        },
        {
          "internalType": "bytes",
          "name": "data",
          "type": "bytes"
        }
      ],
      "name": "safeTransferFrom",
      "outputs": [],
      "stateMutability": "nonpayable",
      "type": "function"
    },
    {
      "inputs": [
        {
          "internalType": "address",
          "name": "operator",
          "type": "address"
        },
        {
          "internalType": "bool",
          "name": "approved",
          "type": "bool"
        }
      ],
      "name": "setApprovalForAll",
      "outputs": [],
      "stateMutability": "nonpayable",
      "type": "function"
    },
    {
      "inputs": [
        {
          "internalType": "bytes4",
          "name": "interfaceId",
          "type": "bytes4"
        }
      ],
      "name": "supportsInterface",
      "outputs": [
        {
          "internalType": "bool",
          "name": "",
          "type": "bool"
        }
      ],
      "stateMutability": "view",
      "type": "function"
    },
    {
      "inputs": [],
      "name": "symbol",
      "outputs": [
        {
          "internalType": "string",
          "name": "",
          "type": "string"
        }
      ],
      "stateMutability": "view",
      "type": "function"
    },
    {
      "inputs": [],
      "name": "tokenIdCounter",
      "outputs": [
        {
          "internalType": "uint256",
          "name": "_value",
          "type": "uint256"
        }
      ],
      "stateMutability": "view",
      "type": "function"
    },
    {
      "inputs": [
        {
          "internalType": "uint256",
          "name": "tokenId",
          "type": "uint256"
        }
      ],
      "name": "tokenURI",
      "outputs": [
        {
          "internalType": "string",
          "name": "",
          "type": "string"
        }
      ],
      "stateMutability": "view",
      "type": "function"
    },
    {
      "inputs": [
        {
          "internalType": "address",
          "name": "from",
          "type": "address"
        },
        {
          "internalType": "address",
          "name": "to",
          "type": "address"
        },
        {
          "internalType": "uint256",
          "name": "tokenId",
          "type": "uint256"
        }
      ],
      "name": "transferFrom",
      "outputs": [],
      "stateMutability": "nonpayable",
      "type": "function"
    },
    {
      "inputs": [
        {
          "internalType": "address",
          "name": "newOwner",
          "type": "address"
        }
      ],
      "name": "transferOwnership",
      "outputs": [],
      "stateMutability": "nonpayable",
      "type": "function"
    }
  ],
  "bytecode": "0x60a06040523480156200001157600080fd5b50604051620035b2380380620035b2833981810160405281019062000037919062000326565b818181600090816200004a9190620005f6565b5080600190816200005c9190620005f6565b5050506200007f62000073620000bb60201b60201c565b620000c360201b60201c565b3373ffffffffffffffffffffffffffffffffffffffff1660808173ffffffffffffffffffffffffffffffffffffffff16815250505050620006dd565b600033905090565b6000600760009054906101000a900473ffffffffffffffffffffffffffffffffffffffff16905081600760006101000a81548173ffffffffffffffffffffffffffffffffffffffff021916908373ffffffffffffffffffffffffffffffffffffffff1602179055508173ffffffffffffffffffffffffffffffffffffffff168173ffffffffffffffffffffffffffffffffffffffff167f8be0079c531659141344cd1fd0a4f28419497f9722a3daafe3b4186f6b6457e060405160405180910390a35050565b6000604051905090565b600080fd5b600080fd5b600080fd5b600080fd5b6000601f19601f8301169050919050565b7f4e487b7100000000000000000000000000000000000000000000000000000000600052604160045260246000fd5b620001f282620001a7565b810181811067ffffffffffffffff82111715620002145762000213620001b8565b5b80604052505050565b60006200022962000189565b9050620002378282620001e7565b919050565b600067ffffffffffffffff8211156200025a5762000259620001b8565b5b6200026582620001a7565b9050602081019050919050565b60005b838110156200029257808201518184015260208101905062000275565b83811115620002a2576000848401525b50505050565b6000620002bf620002b9846200023c565b6200021d565b905082815260208101848484011115620002de57620002dd620001a2565b5b620002eb84828562000272565b509392505050565b600082601f8301126200030b576200030a6200019d565b5b81516200031d848260208601620002a8565b91505092915050565b6000806040838503121562000340576200033f62000193565b5b600083015167ffffffffffffffff81111562000361576200036062000198565b5b6200036f85828601620002f3565b925050602083015167ffffffffffffffff81111562000393576200039262000198565b5b620003a185828601620002f3565b9150509250929050565b600081519050919050565b7f4e487b7100000000000000000000000000000000000000000000000000000000600052602260045260246000fd5b60006002820490506001821680620003fe57607f821691505b602082108103620004145762000413620003b6565b5b50919050565b60008190508160005260206000209050919050565b60006020601f8301049050919050565b600082821b905092915050565b6000600883026200047e7fffffffffffffffffffffffffffffffffffffffffffffffffffffffffffffffff826200043f565b6200048a86836200043f565b95508019841693508086168417925050509392505050565b6000819050919050565b6000819050919050565b6000620004d7620004d1620004cb84620004a2565b620004ac565b620004a2565b9050919050565b6000819050919050565b620004f383620004b6565b6200050b6200050282620004de565b8484546200044c565b825550505050565b600090565b6200052262000513565b6200052f818484620004e8565b505050565b5b8181101562000557576200054b60008262000518565b60018101905062000535565b5050565b601f821115620005a65762000570816200041a565b6200057b846200042f565b810160208510156200058b578190505b620005a36200059a856200042f565b83018262000534565b50505b505050565b600082821c905092915050565b6000620005cb60001984600802620005ab565b1980831691505092915050565b6000620005e68383620005b8565b9150826002028217905092915050565b6200060182620003ab565b67ffffffffffffffff8111156200061d576200061c620001b8565b5b620006298254620003e5565b620006368282856200055b565b600060209050601f8311600181146200066e576000841562000659578287015190505b620006658582620005d8565b865550620006d5565b601f1984166200067e866200041a565b60005b82811015620006a85784890151825560018201915060208501945060208101905062000681565b86831015620006c85784890151620006c4601f891682620005b8565b8355505b6001600288020188555050505b505050505050565b608051612eb9620006f960003960006107110152612eb96000f3fe608060405234801561001057600080fd5b50600436106101215760003560e01c8063715018a6116100ad578063b88d4fde11610071578063b88d4fde146102f6578063c87b56dd14610312578063d85d3d2714610342578063e985e9c514610372578063f2fde38b146103a257610121565b8063715018a6146102765780638da5cb5b1461028057806395d89b411461029e57806398bdf6f5146102bc578063a22cb465146102da57610121565b806323b872dd116100f457806323b872dd146101c057806342842e0e146101dc5780635dab2420146101f85780636352211e1461021657806370a082311461024657610121565b806301ffc9a71461012657806306fdde0314610156578063081812fc14610174578063095ea7b3146101a4575b600080fd5b610140600480360381019061013b9190611b22565b6103be565b60405161014d9190611b6a565b60405180910390f35b61015e6104a0565b60405161016b9190611c1e565b60405180910390f35b61018e60048036038101906101899190611c76565b610532565b60405161019b9190611ce4565b60405180910390f35b6101be60048036038101906101b99190611d2b565b610578565b005b6101da60048036038101906101d59190611d6b565b61068f565b005b6101f660048036038101906101f19190611d6b565b6106ef565b005b61020061070f565b60405161020d9190611ce4565b60405180910390f35b610230600480360381019061022b9190611c76565b610733565b60405161023d9190611ce4565b60405180910390f35b610260600480360381019061025b9190611dbe565b6107e4565b60405161026d9190611dfa565b60405180910390f35b61027e61089b565b005b6102886108af565b6040516102959190611ce4565b60405180910390f35b6102a66108d9565b6040516102b39190611c1e565b60405180910390f35b6102c461096b565b6040516102d19190611dfa565b60405180910390f35b6102f460048036038101906102ef9190611e41565b610977565b005b610310600480360381019061030b9190611fb6565b61098d565b005b61032c60048036038101906103279190611c76565b6109ef565b6040516103399190611c1e565b60405180910390f35b61035c600480360381019061035791906120da565b610b01565b6040516103699190611dfa565b60405180910390f35b61038c60048036038101906103879190612123565b610b40565b6040516103999190611b6a565b60405180910390f35b6103bc60048036038101906103b79190611dbe565b610bd4565b005b60007f80ac58cd000000000000000000000000000000000000000000000000000000007bffffffffffffffffffffffffffffffffffffffffffffffffffffffff1916827bffffffffffffffffffffffffffffffffffffffffffffffffffffffff1916148061048957507f5b5e139f000000000000000000000000000000000000000000000000000000007bffffffffffffffffffffffffffffffffffffffffffffffffffffffff1916827bffffffffffffffffffffffffffffffffffffffffffffffffffffffff1916145b80610499575061049882610c57565b5b9050919050565b6060600080546104af90612192565b80601f01602080910402602001604051908101604052809291908181526020018280546104db90612192565b80156105285780601f106104fd57610100808354040283529160200191610528565b820191906000526020600020905b81548152906001019060200180831161050b57829003601f168201915b5050505050905090565b600061053d82610cc1565b6004600083815260200190815260200160002060009054906101000a900473ffffffffffffffffffffffffffffffffffffffff169050919050565b600061058382610733565b90508073ffffffffffffffffffffffffffffffffffffffff168373ffffffffffffffffffffffffffffffffffffffff16036105f3576040517f08c379a00000000000000000000000000000000000000000000000000000000081526004016105ea90612235565b60405180910390fd5b8073ffffffffffffffffffffffffffffffffffffffff16610612610d0c565b73ffffffffffffffffffffffffffffffffffffffff16148061064157506106408161063b610d0c565b610b40565b5b610680576040517f08c379a0000000000000000000000000000000000000000000000000000000008152600401610677906122c7565b60405180910390fd5b61068a8383610d14565b505050565b6106a061069a610d0c565b82610dcd565b6106df576040517f08c379a00000000000000000000000000000000000000000000000000000000081526004016106d690612359565b60405180910390fd5b6106ea838383610e62565b505050565b61070a8383836040518060200160405280600081525061098d565b505050565b7f000000000000000000000000000000000000000000000000000000000000000081565b6000806002600084815260200190815260200160002060009054906101000a900473ffffffffffffffffffffffffffffffffffffffff169050600073ffffffffffffffffffffffffffffffffffffffff168173ffffffffffffffffffffffffffffffffffffffff16036107db576040517f08c379a00000000000000000000000000000000000000000000000000000000081526004016107d2906123c5565b60405180910390fd5b80915050919050565b60008073ffffffffffffffffffffffffffffffffffffffff168273ffffffffffffffffffffffffffffffffffffffff1603610854576040517f08c379a000000000000000000000000000000000000000000000000000000000815260040161084b90612457565b60405180910390fd5b600360008373ffffffffffffffffffffffffffffffffffffffff1673ffffffffffffffffffffffffffffffffffffffff168152602001908152602001600020549050919050565b6108a36110c8565b6108ad6000611146565b565b6000600760009054906101000a900473ffffffffffffffffffffffffffffffffffffffff16905090565b6060600180546108e890612192565b80601f016020809104026020016040519081016040528092919081815260200182805461091490612192565b80156109615780601f1061093657610100808354040283529160200191610961565b820191906000526020600020905b81548152906001019060200180831161094457829003601f168201915b5050505050905090565b60088060000154905081565b610989610982610d0c565b838361120c565b5050565b61099e610998610d0c565b83610dcd565b6109dd576040517f08c379a00000000000000000000000000000000000000000000000000000000081526004016109d490612359565b60405180910390fd5b6109e984848484611378565b50505050565b60606109fa82610cc1565b6000600660008481526020019081526020016000208054610a1a90612192565b80601f0160208091040260200160405190810160405280929190818152602001828054610a4690612192565b8015610a935780601f10610a6857610100808354040283529160200191610a93565b820191906000526020600020905b815481529060010190602001808311610a7657829003601f168201915b505050505090506000610aa46113d4565b90506000815103610ab9578192505050610afc565b600082511115610aee578082604051602001610ad69291906124b3565b60405160208183030381529060405292505050610afc565b610af7846113eb565b925050505b919050565b6000610b0b6110c8565b6000610b176008611453565b9050610b236008611461565b610b2d3382611477565b610b378184611495565b80915050919050565b6000600560008473ffffffffffffffffffffffffffffffffffffffff1673ffffffffffffffffffffffffffffffffffffffff16815260200190815260200160002060008373ffffffffffffffffffffffffffffffffffffffff1673ffffffffffffffffffffffffffffffffffffffff16815260200190815260200160002060009054906101000a900460ff16905092915050565b610bdc6110c8565b600073ffffffffffffffffffffffffffffffffffffffff168173ffffffffffffffffffffffffffffffffffffffff1603610c4b576040517f08c379a0000000000000000000000000000000000000000000000000000000008152600401610c4290612549565b60405180910390fd5b610c5481611146565b50565b60007f01ffc9a7000000000000000000000000000000000000000000000000000000007bffffffffffffffffffffffffffffffffffffffffffffffffffffffff1916827bffffffffffffffffffffffffffffffffffffffffffffffffffffffff1916149050919050565b610cca81611502565b610d09576040517f08c379a0000000000000000000000000000000000000000000000000000000008152600401610d00906123c5565b60405180910390fd5b50565b600033905090565b816004600083815260200190815260200160002060006101000a81548173ffffffffffffffffffffffffffffffffffffffff021916908373ffffffffffffffffffffffffffffffffffffffff160217905550808273ffffffffffffffffffffffffffffffffffffffff16610d8783610733565b73ffffffffffffffffffffffffffffffffffffffff167f8c5be1e5ebec7d5bd14f71427d1e84f3dd0314c0f7b2291e5b200ac8c7c3b92560405160405180910390a45050565b600080610dd983610733565b90508073ffffffffffffffffffffffffffffffffffffffff168473ffffffffffffffffffffffffffffffffffffffff161480610e1b5750610e1a8185610b40565b5b80610e5957508373ffffffffffffffffffffffffffffffffffffffff16610e4184610532565b73ffffffffffffffffffffffffffffffffffffffff16145b91505092915050565b8273ffffffffffffffffffffffffffffffffffffffff16610e8282610733565b73ffffffffffffffffffffffffffffffffffffffff1614610ed8576040517f08c379a0000000000000000000000000000000000000000000000000000000008152600401610ecf906125db565b60405180910390fd5b600073ffffffffffffffffffffffffffffffffffffffff168273ffffffffffffffffffffffffffffffffffffffff1603610f47576040517f08c379a0000000000000000000000000000000000000000000000000000000008152600401610f3e9061266d565b60405180910390fd5b610f5283838361156e565b610f5d600082610d14565b6001600360008573ffffffffffffffffffffffffffffffffffffffff1673ffffffffffffffffffffffffffffffffffffffff1681526020019081526020016000206000828254610fad91906126bc565b925050819055506001600360008473ffffffffffffffffffffffffffffffffffffffff1673ffffffffffffffffffffffffffffffffffffffff168152602001908152602001600020600082825461100491906126f0565b92505081905550816002600083815260200190815260200160002060006101000a81548173ffffffffffffffffffffffffffffffffffffffff021916908373ffffffffffffffffffffffffffffffffffffffff160217905550808273ffffffffffffffffffffffffffffffffffffffff168473ffffffffffffffffffffffffffffffffffffffff167fddf252ad1be2c89b69c2b068fc378daa952ba7f163c4a11628f55a4df523b3ef60405160405180910390a46110c3838383611573565b505050565b6110d0610d0c565b73ffffffffffffffffffffffffffffffffffffffff166110ee6108af565b73ffffffffffffffffffffffffffffffffffffffff1614611144576040517f08c379a000000000000000000000000000000000000000000000000000000000815260040161113b90612792565b60405180910390fd5b565b6000600760009054906101000a900473ffffffffffffffffffffffffffffffffffffffff16905081600760006101000a81548173ffffffffffffffffffffffffffffffffffffffff021916908373ffffffffffffffffffffffffffffffffffffffff1602179055508173ffffffffffffffffffffffffffffffffffffffff168173ffffffffffffffffffffffffffffffffffffffff167f8be0079c531659141344cd1fd0a4f28419497f9722a3daafe3b4186f6b6457e060405160405180910390a35050565b8173ffffffffffffffffffffffffffffffffffffffff168373ffffffffffffffffffffffffffffffffffffffff160361127a576040517f08c379a0000000000000000000000000000000000000000000000000000000008152600401611271906127fe565b60405180910390fd5b80600560008573ffffffffffffffffffffffffffffffffffffffff1673ffffffffffffffffffffffffffffffffffffffff16815260200190815260200160002060008473ffffffffffffffffffffffffffffffffffffffff1673ffffffffffffffffffffffffffffffffffffffff16815260200190815260200160002060006101000a81548160ff0219169083151502179055508173ffffffffffffffffffffffffffffffffffffffff168373ffffffffffffffffffffffffffffffffffffffff167f17307eab39ab6107e8899845ad3d59bd9653f200f220920489ca2b5937696c318360405161136b9190611b6a565b60405180910390a3505050565b611383848484610e62565b61138f84848484611578565b6113ce576040517f08c379a00000000000000000000000000000000000000000000000000000000081526004016113c590612890565b60405180910390fd5b50505050565b606060405180602001604052806000815250905090565b60606113f682610cc1565b60006114006113d4565b90506000815111611420576040518060200160405280600081525061144b565b8061142a846116ff565b60405160200161143b9291906124b3565b6040516020818303038152906040525b915050919050565b600081600001549050919050565b6001816000016000828254019250508190555050565b61149182826040518060200160405280600081525061185f565b5050565b61149e82611502565b6114dd576040517f08c379a00000000000000000000000000000000000000000000000000000000081526004016114d490612922565b60405180910390fd5b806006600084815260200190815260200160002090816114fd9190612aee565b505050565b60008073ffffffffffffffffffffffffffffffffffffffff166002600084815260200190815260200160002060009054906101000a900473ffffffffffffffffffffffffffffffffffffffff1673ffffffffffffffffffffffffffffffffffffffff1614159050919050565b505050565b505050565b60006115998473ffffffffffffffffffffffffffffffffffffffff166118ba565b156116f2578373ffffffffffffffffffffffffffffffffffffffff1663150b7a026115c2610d0c565b8786866040518563ffffffff1660e01b81526004016115e49493929190612c15565b6020604051808303816000875af192505050801561162057506040513d601f19601f8201168201806040525081019061161d9190612c76565b60015b6116a2573d8060008114611650576040519150601f19603f3d011682016040523d82523d6000602084013e611655565b606091505b50600081510361169a576040517f08c379a000000000000000000000000000000000000000000000000000000000815260040161169190612890565b60405180910390fd5b805181602001fd5b63150b7a0260e01b7bffffffffffffffffffffffffffffffffffffffffffffffffffffffff1916817bffffffffffffffffffffffffffffffffffffffffffffffffffffffff1916149150506116f7565b600190505b949350505050565b606060008203611746576040518060400160405280600181526020017f3000000000000000000000000000000000000000000000000000000000000000815250905061185a565b600082905060005b6000821461177857808061176190612ca3565b915050600a826117719190612d1a565b915061174e565b60008167ffffffffffffffff81111561179457611793611e8b565b5b6040519080825280601f01601f1916602001820160405280156117c65781602001600182028036833780820191505090505b5090505b60008514611853576001826117df91906126bc565b9150600a856117ee9190612d4b565b60306117fa91906126f0565b60f81b8183815181106118105761180f612d7c565b5b60200101907effffffffffffffffffffffffffffffffffffffffffffffffffffffffffffff1916908160001a905350600a8561184c9190612d1a565b94506117ca565b8093505050505b919050565b61186983836118dd565b6118766000848484611578565b6118b5576040517f08c379a00000000000000000000000000000000000000000000000000000000081526004016118ac90612890565b60405180910390fd5b505050565b6000808273ffffffffffffffffffffffffffffffffffffffff163b119050919050565b600073ffffffffffffffffffffffffffffffffffffffff168273ffffffffffffffffffffffffffffffffffffffff160361194c576040517f08c379a000000000000000000000000000000000000000000000000000000000815260040161194390612df7565b60405180910390fd5b61195581611502565b15611995576040517f08c379a000000000000000000000000000000000000000000000000000000000815260040161198c90612e63565b60405180910390fd5b6119a16000838361156e565b6001600360008473ffffffffffffffffffffffffffffffffffffffff1673ffffffffffffffffffffffffffffffffffffffff16815260200190815260200160002060008282546119f191906126f0565b92505081905550816002600083815260200190815260200160002060006101000a81548173ffffffffffffffffffffffffffffffffffffffff021916908373ffffffffffffffffffffffffffffffffffffffff160217905550808273ffffffffffffffffffffffffffffffffffffffff16600073ffffffffffffffffffffffffffffffffffffffff167fddf252ad1be2c89b69c2b068fc378daa952ba7f163c4a11628f55a4df523b3ef60405160405180910390a4611ab260008383611573565b5050565b6000604051905090565b600080fd5b600080fd5b60007fffffffff0000000000000000000000000000000000000000000000000000000082169050919050565b611aff81611aca565b8114611b0a57600080fd5b50565b600081359050611b1c81611af6565b92915050565b600060208284031215611b3857611b37611ac0565b5b6000611b4684828501611b0d565b91505092915050565b60008115159050919050565b611b6481611b4f565b82525050565b6000602082019050611b7f6000830184611b5b565b92915050565b600081519050919050565b600082825260208201905092915050565b60005b83811015611bbf578082015181840152602081019050611ba4565b83811115611bce576000848401525b50505050565b6000601f19601f8301169050919050565b6000611bf082611b85565b611bfa8185611b90565b9350611c0a818560208601611ba1565b611c1381611bd4565b840191505092915050565b60006020820190508181036000830152611c388184611be5565b905092915050565b6000819050919050565b611c5381611c40565b8114611c5e57600080fd5b50565b600081359050611c7081611c4a565b92915050565b600060208284031215611c8c57611c8b611ac0565b5b6000611c9a84828501611c61565b91505092915050565b600073ffffffffffffffffffffffffffffffffffffffff82169050919050565b6000611cce82611ca3565b9050919050565b611cde81611cc3565b82525050565b6000602082019050611cf96000830184611cd5565b92915050565b611d0881611cc3565b8114611d1357600080fd5b50565b600081359050611d2581611cff565b92915050565b60008060408385031215611d4257611d41611ac0565b5b6000611d5085828601611d16565b9250506020611d6185828601611c61565b9150509250929050565b600080600060608486031215611d8457611d83611ac0565b5b6000611d9286828701611d16565b9350506020611da386828701611d16565b9250506040611db486828701611c61565b9150509250925092565b600060208284031215611dd457611dd3611ac0565b5b6000611de284828501611d16565b91505092915050565b611df481611c40565b82525050565b6000602082019050611e0f6000830184611deb565b92915050565b611e1e81611b4f565b8114611e2957600080fd5b50565b600081359050611e3b81611e15565b92915050565b60008060408385031215611e5857611e57611ac0565b5b6000611e6685828601611d16565b9250506020611e7785828601611e2c565b9150509250929050565b600080fd5b600080fd5b7f4e487b7100000000000000000000000000000000000000000000000000000000600052604160045260246000fd5b611ec382611bd4565b810181811067ffffffffffffffff82111715611ee257611ee1611e8b565b5b80604052505050565b6000611ef5611ab6565b9050611f018282611eba565b919050565b600067ffffffffffffffff821115611f2157611f20611e8b565b5b611f2a82611bd4565b9050602081019050919050565b82818337600083830152505050565b6000611f59611f5484611f06565b611eeb565b905082815260208101848484011115611f7557611f74611e86565b5b611f80848285611f37565b509392505050565b600082601f830112611f9d57611f9c611e81565b5b8135611fad848260208601611f46565b91505092915050565b60008060008060808587031215611fd057611fcf611ac0565b5b6000611fde87828801611d16565b9450506020611fef87828801611d16565b935050604061200087828801611c61565b925050606085013567ffffffffffffffff81111561202157612020611ac5565b5b61202d87828801611f88565b91505092959194509250565b600067ffffffffffffffff82111561205457612053611e8b565b5b61205d82611bd4565b9050602081019050919050565b600061207d61207884612039565b611eeb565b90508281526020810184848401111561209957612098611e86565b5b6120a4848285611f37565b509392505050565b600082601f8301126120c1576120c0611e81565b5b81356120d184826020860161206a565b91505092915050565b6000602082840312156120f0576120ef611ac0565b5b600082013567ffffffffffffffff81111561210e5761210d611ac5565b5b61211a848285016120ac565b91505092915050565b6000806040838503121561213a57612139611ac0565b5b600061214885828601611d16565b925050602061215985828601611d16565b9150509250929050565b7f4e487b7100000000000000000000000000000000000000000000000000000000600052602260045260246000fd5b600060028204905060018216806121aa57607f821691505b6020821081036121bd576121bc612163565b5b50919050565b7f4552433732313a20617070726f76616c20746f2063757272656e74206f776e6560008201527f7200000000000000000000000000000000000000000000000000000000000000602082015250565b600061221f602183611b90565b915061222a826121c3565b604082019050919050565b6000602082019050818103600083015261224e81612212565b9050919050565b7f4552433732313a20617070726f76652063616c6c6572206973206e6f7420746f60008201527f6b656e206f776e6572206e6f7220617070726f76656420666f7220616c6c0000602082015250565b60006122b1603e83611b90565b91506122bc82612255565b604082019050919050565b600060208201905081810360008301526122e0816122a4565b9050919050565b7f4552433732313a2063616c6c6572206973206e6f7420746f6b656e206f776e6560008201527f72206e6f7220617070726f766564000000000000000000000000000000000000602082015250565b6000612343602e83611b90565b915061234e826122e7565b604082019050919050565b6000602082019050818103600083015261237281612336565b9050919050565b7f4552433732313a20696e76616c696420746f6b656e2049440000000000000000600082015250565b60006123af601883611b90565b91506123ba82612379565b602082019050919050565b600060208201905081810360008301526123de816123a2565b9050919050565b7f4552433732313a2061646472657373207a65726f206973206e6f74206120766160008201527f6c6964206f776e65720000000000000000000000000000000000000000000000602082015250565b6000612441602983611b90565b915061244c826123e5565b604082019050919050565b6000602082019050818103600083015261247081612434565b9050919050565b600081905092915050565b600061248d82611b85565b6124978185612477565b93506124a7818560208601611ba1565b80840191505092915050565b60006124bf8285612482565b91506124cb8284612482565b91508190509392505050565b7f4f776e61626c653a206e6577206f776e657220697320746865207a65726f206160008201527f6464726573730000000000000000000000000000000000000000000000000000602082015250565b6000612533602683611b90565b915061253e826124d7565b604082019050919050565b6000602082019050818103600083015261256281612526565b9050919050565b7f4552433732313a207472616e736665722066726f6d20696e636f72726563742060008201527f6f776e6572000000000000000000000000000000000000000000000000000000602082015250565b60006125c5602583611b90565b91506125d082612569565b604082019050919050565b600060208201905081810360008301526125f4816125b8565b9050919050565b7f4552433732313a207472616e7366657220746f20746865207a65726f2061646460008201527f7265737300000000000000000000000000000000000000000000000000000000602082015250565b6000612657602483611b90565b9150612662826125fb565b604082019050919050565b600060208201905081810360008301526126868161264a565b9050919050565b7f4e487b7100000000000000000000000000000000000000000000000000000000600052601160045260246000fd5b60006126c782611c40565b91506126d283611c40565b9250828210156126e5576126e461268d565b5b828203905092915050565b60006126fb82611c40565b915061270683611c40565b9250827fffffffffffffffffffffffffffffffffffffffffffffffffffffffffffffffff0382111561273b5761273a61268d565b5b828201905092915050565b7f4f776e61626c653a2063616c6c6572206973206e6f7420746865206f776e6572600082015250565b600061277c602083611b90565b915061278782612746565b602082019050919050565b600060208201905081810360008301526127ab8161276f565b9050919050565b7f4552433732313a20617070726f766520746f2063616c6c657200000000000000600082015250565b60006127e8601983611b90565b91506127f3826127b2565b602082019050919050565b60006020820190508181036000830152612817816127db565b9050919050565b7f4552433732313a207472616e7366657220746f206e6f6e20455243373231526560008201527f63656976657220696d706c656d656e7465720000000000000000000000000000602082015250565b600061287a603283611b90565b91506128858261281e565b604082019050919050565b600060208201905081810360008301526128a98161286d565b9050919050565b7f45524337323155524953746f726167653a2055524920736574206f66206e6f6e60008201527f6578697374656e7420746f6b656e000000000000000000000000000000000000602082015250565b600061290c602e83611b90565b9150612917826128b0565b604082019050919050565b6000602082019050818103600083015261293b816128ff565b9050919050565b60008190508160005260206000209050919050565b60006020601f8301049050919050565b600082821b905092915050565b6000600883026129a47fffffffffffffffffffffffffffffffffffffffffffffffffffffffffffffffff82612967565b6129ae8683612967565b95508019841693508086168417925050509392505050565b6000819050919050565b60006129eb6129e66129e184611c40565b6129c6565b611c40565b9050919050565b6000819050919050565b612a05836129d0565b612a19612a11826129f2565b848454612974565b825550505050565b600090565b612a2e612a21565b612a398184846129fc565b505050565b5b81811015612a5d57612a52600082612a26565b600181019050612a3f565b5050565b601f821115612aa257612a7381612942565b612a7c84612957565b81016020851015612a8b578190505b612a9f612a9785612957565b830182612a3e565b50505b505050565b600082821c905092915050565b6000612ac560001984600802612aa7565b1980831691505092915050565b6000612ade8383612ab4565b9150826002028217905092915050565b612af782611b85565b67ffffffffffffffff811115612b1057612b0f611e8b565b5b612b1a8254612192565b612b25828285612a61565b600060209050601f831160018114612b585760008415612b46578287015190505b612b508582612ad2565b865550612bb8565b601f198416612b6686612942565b60005b82811015612b8e57848901518255600182019150602085019450602081019050612b69565b86831015612bab5784890151612ba7601f891682612ab4565b8355505b6001600288020188555050505b505050505050565b600081519050919050565b600082825260208201905092915050565b6000612be782612bc0565b612bf18185612bcb565b9350612c01818560208601611ba1565b612c0a81611bd4565b840191505092915050565b6000608082019050612c2a6000830187611cd5565b612c376020830186611cd5565b612c446040830185611deb565b8181036060830152612c568184612bdc565b905095945050505050565b600081519050612c7081611af6565b92915050565b600060208284031215612c8c57612c8b611ac0565b5b6000612c9a84828501612c61565b91505092915050565b6000612cae82611c40565b91507fffffffffffffffffffffffffffffffffffffffffffffffffffffffffffffffff8203612ce057612cdf61268d565b5b600182019050919050565b7f4e487b7100000000000000000000000000000000000000000000000000000000600052601260045260246000fd5b6000612d2582611c40565b9150612d3083611c40565b925082612d4057612d3f612ceb565b5b828204905092915050565b6000612d5682611c40565b9150612d6183611c40565b925082612d7157612d70612ceb565b5b828206905092915050565b7f4e487b7100000000000000000000000000000000000000000000000000000000600052603260045260246000fd5b7f4552433732313a206d696e7420746f20746865207a65726f2061646472657373600082015250565b6000612de1602083611b90565b9150612dec82612dab565b602082019050919050565b60006020820190508181036000830152612e1081612dd4565b9050919050565b7f4552433732313a20746f6b656e20616c7265616479206d696e74656400000000600082015250565b6000612e4d601c83611b90565b9150612e5882612e17565b602082019050919050565b60006020820190508181036000830152612e7c81612e40565b905091905056fea264697066735822122043b1cbf005130b98414874d4ef3c16b26b46b572564374e74e04f9ae61d2495264736f6c634300080f0033",
  "linkReferences": {},
  "deployedLinkReferences": {}
}