{
  "_format": "hh-sol-artifact-1",
  "contractName": "NFTContract",
  "sourceName": "src/blockchain/hardhat/contracts/NFTContract.sol",
  "abi": [
    {
      "inputs": [
        {
          "internalType": "string",
          "name": "_name",
          "type": "string"
        },
        {
          "internalType": "string",
          "name": "_symbol",
          "type": "string"
        }
      ],
      "stateMutability": "nonpayable",
      "type": "constructor"
    },
    {
      "anonymous": false,
      "inputs": [
        {
          "indexed": true,
          "internalType": "address",
          "name": "owner",
          "type": "address"
        },
        {
          "indexed": true,
          "internalType": "address",
          "name": "approved",
          "type": "address"
        },
        {
          "indexed": true,
          "internalType": "uint256",
          "name": "tokenId",
          "type": "uint256"
        }
      ],
      "name": "Approval",
      "type": "event"
    },
    {
      "anonymous": false,
      "inputs": [
        {
          "indexed": true,
          "internalType": "address",
          "name": "owner",
          "type": "address"
        },
        {
          "indexed": true,
          "internalType": "address",
          "name": "operator",
          "type": "address"
        },
        {
          "indexed": false,
          "internalType": "bool",
          "name": "approved",
          "type": "bool"
        }
      ],
      "name": "ApprovalForAll",
      "type": "event"
    },
    {
      "anonymous": false,
      "inputs": [
        {
          "indexed": true,
          "internalType": "address",
          "name": "from",
          "type": "address"
        },
        {
          "indexed": true,
          "internalType": "address",
          "name": "to",
          "type": "address"
        },
        {
          "indexed": true,
          "internalType": "uint256",
          "name": "tokenId",
          "type": "uint256"
        }
      ],
      "name": "Transfer",
      "type": "event"
    },
    {
      "inputs": [
        {
          "internalType": "address",
          "name": "to",
          "type": "address"
        },
        {
          "internalType": "uint256",
          "name": "tokenId",
          "type": "uint256"
        }
      ],
      "name": "approve",
      "outputs": [],
      "stateMutability": "nonpayable",
      "type": "function"
    },
    {
      "inputs": [
        {
          "internalType": "address",
          "name": "owner",
          "type": "address"
        }
      ],
      "name": "balanceOf",
      "outputs": [
        {
          "internalType": "uint256",
          "name": "",
          "type": "uint256"
        }
      ],
      "stateMutability": "view",
      "type": "function"
    },
    {
      "inputs": [
        {
          "internalType": "uint256",
          "name": "tokenId",
          "type": "uint256"
        }
      ],
      "name": "getApproved",
      "outputs": [
        {
          "internalType": "address",
          "name": "",
          "type": "address"
        }
      ],
      "stateMutability": "view",
      "type": "function"
    },
    {
      "inputs": [
        {
          "internalType": "address",
          "name": "owner",
          "type": "address"
        },
        {
          "internalType": "address",
          "name": "operator",
          "type": "address"
        }
      ],
      "name": "isApprovedForAll",
      "outputs": [
        {
          "internalType": "bool",
          "name": "",
          "type": "bool"
        }
      ],
      "stateMutability": "view",
      "type": "function"
    },
    {
      "inputs": [
        {
          "internalType": "string",
          "name": "_tokenURI",
          "type": "string"
        }
      ],
      "name": "mint",
      "outputs": [
        {
          "internalType": "uint256",
          "name": "",
          "type": "uint256"
        }
      ],
      "stateMutability": "nonpayable",
      "type": "function"
    },
    {
      "inputs": [],
      "name": "name",
      "outputs": [
        {
          "internalType": "string",
          "name": "",
          "type": "string"
        }
      ],
      "stateMutability": "view",
      "type": "function"
    },
    {
      "inputs": [
        {
          "internalType": "uint256",
          "name": "tokenId",
          "type": "uint256"
        }
      ],
      "name": "ownerOf",
      "outputs": [
        {
          "internalType": "address",
          "name": "",
          "type": "address"
        }
      ],
      "stateMutability": "view",
      "type": "function"
    },
    {
      "inputs": [
        {
          "internalType": "address",
          "name": "from",
          "type": "address"
        },
        {
          "internalType": "address",
          "name": "to",
          "type": "address"
        },
        {
          "internalType": "uint256",
          "name": "tokenId",
          "type": "uint256"
        }
      ],
      "name": "safeTransferFrom",
      "outputs": [],
      "stateMutability": "nonpayable",
      "type": "function"
    },
    {
      "inputs": [
        {
          "internalType": "address",
          "name": "from",
          "type": "address"
        },
        {
          "internalType": "address",
          "name": "to",
          "type": "address"
        },
        {
          "internalType": "uint256",
          "name": "tokenId",
          "type": "uint256"
        },
        {
          "internalType": "bytes",
          "name": "data",
          "type": "bytes"
        }
      ],
      "name": "safeTransferFrom",
      "outputs": [],
      "stateMutability": "nonpayable",
      "type": "function"
    },
    {
      "inputs": [
        {
          "internalType": "address",
          "name": "operator",
          "type": "address"
        },
        {
          "internalType": "bool",
          "name": "approved",
          "type": "bool"
        }
      ],
      "name": "setApprovalForAll",
      "outputs": [],
      "stateMutability": "nonpayable",
      "type": "function"
    },
    {
      "inputs": [
        {
          "internalType": "bytes4",
          "name": "interfaceId",
          "type": "bytes4"
        }
      ],
      "name": "supportsInterface",
      "outputs": [
        {
          "internalType": "bool",
          "name": "",
          "type": "bool"
        }
      ],
      "stateMutability": "view",
      "type": "function"
    },
    {
      "inputs": [],
      "name": "symbol",
      "outputs": [
        {
          "internalType": "string",
          "name": "",
          "type": "string"
        }
      ],
      "stateMutability": "view",
      "type": "function"
    },
    {
      "inputs": [],
      "name": "tokenIdCounter",
      "outputs": [
        {
          "internalType": "uint256",
          "name": "_value",
          "type": "uint256"
        }
      ],
      "stateMutability": "view",
      "type": "function"
    },
    {
      "inputs": [
        {
          "internalType": "uint256",
          "name": "tokenId",
          "type": "uint256"
        }
      ],
      "name": "tokenURI",
      "outputs": [
        {
          "internalType": "string",
          "name": "",
          "type": "string"
        }
      ],
      "stateMutability": "view",
      "type": "function"
    },
    {
      "inputs": [
        {
          "internalType": "address",
          "name": "from",
          "type": "address"
        },
        {
          "internalType": "address",
          "name": "to",
          "type": "address"
        },
        {
          "internalType": "uint256",
          "name": "tokenId",
          "type": "uint256"
        }
      ],
      "name": "transferFrom",
      "outputs": [],
      "stateMutability": "nonpayable",
      "type": "function"
    }
  ],
  "bytecode": "0x60806040523480156200001157600080fd5b5060405162002ce238038062002ce28339818101604052810190620000379190620002c2565b818181600090805190602001906200005192919062000075565b5080600190805190602001906200006a92919062000075565b5050505050620003ab565b828054620000839062000376565b90600052602060002090601f016020900481019282620000a75760008555620000f3565b82601f10620000c257805160ff1916838001178555620000f3565b82800160010185558215620000f3579182015b82811115620000f2578251825591602001919060010190620000d5565b5b50905062000102919062000106565b5090565b5b808211156200012157600081600090555060010162000107565b5090565b6000604051905090565b600080fd5b600080fd5b600080fd5b600080fd5b6000601f19601f8301169050919050565b7f4e487b7100000000000000000000000000000000000000000000000000000000600052604160045260246000fd5b6200018e8262000143565b810181811067ffffffffffffffff82111715620001b057620001af62000154565b5b80604052505050565b6000620001c562000125565b9050620001d3828262000183565b919050565b600067ffffffffffffffff821115620001f657620001f562000154565b5b620002018262000143565b9050602081019050919050565b60005b838110156200022e57808201518184015260208101905062000211565b838111156200023e576000848401525b50505050565b60006200025b6200025584620001d8565b620001b9565b9050828152602081018484840111156200027a57620002796200013e565b5b620002878482856200020e565b509392505050565b600082601f830112620002a757620002a662000139565b5b8151620002b984826020860162000244565b91505092915050565b60008060408385031215620002dc57620002db6200012f565b5b600083015167ffffffffffffffff811115620002fd57620002fc62000134565b5b6200030b858286016200028f565b925050602083015167ffffffffffffffff8111156200032f576200032e62000134565b5b6200033d858286016200028f565b9150509250929050565b7f4e487b7100000000000000000000000000000000000000000000000000000000600052602260045260246000fd5b600060028204905060018216806200038f57607f821691505b602082108103620003a557620003a462000347565b5b50919050565b61292780620003bb6000396000f3fe608060405234801561001057600080fd5b50600436106100f55760003560e01c806370a0823111610097578063b88d4fde11610066578063b88d4fde14610284578063c87b56dd146102a0578063d85d3d27146102d0578063e985e9c514610300576100f5565b806370a08231146101fc57806395d89b411461022c57806398bdf6f51461024a578063a22cb46514610268576100f5565b8063095ea7b3116100d3578063095ea7b31461017857806323b872dd1461019457806342842e0e146101b05780636352211e146101cc576100f5565b806301ffc9a7146100fa57806306fdde031461012a578063081812fc14610148575b600080fd5b610114600480360381019061010f919061190c565b610330565b6040516101219190611954565b60405180910390f35b610132610412565b60405161013f9190611a08565b60405180910390f35b610162600480360381019061015d9190611a60565b6104a4565b60405161016f9190611ace565b60405180910390f35b610192600480360381019061018d9190611b15565b6104ea565b005b6101ae60048036038101906101a99190611b55565b610601565b005b6101ca60048036038101906101c59190611b55565b610661565b005b6101e660048036038101906101e19190611a60565b610681565b6040516101f39190611ace565b60405180910390f35b61021660048036038101906102119190611ba8565b610732565b6040516102239190611be4565b60405180910390f35b6102346107e9565b6040516102419190611a08565b60405180910390f35b61025261087b565b60405161025f9190611be4565b60405180910390f35b610282600480360381019061027d9190611c2b565b610887565b005b61029e60048036038101906102999190611da0565b61089d565b005b6102ba60048036038101906102b59190611a60565b6108ff565b6040516102c79190611a08565b60405180910390f35b6102ea60048036038101906102e59190611ec4565b610a11565b6040516102f79190611be4565b60405180910390f35b61031a60048036038101906103159190611f0d565b610a47565b6040516103279190611954565b60405180910390f35b60007f80ac58cd000000000000000000000000000000000000000000000000000000007bffffffffffffffffffffffffffffffffffffffffffffffffffffffff1916827bffffffffffffffffffffffffffffffffffffffffffffffffffffffff191614806103fb57507f5b5e139f000000000000000000000000000000000000000000000000000000007bffffffffffffffffffffffffffffffffffffffffffffffffffffffff1916827bffffffffffffffffffffffffffffffffffffffffffffffffffffffff1916145b8061040b575061040a82610adb565b5b9050919050565b60606000805461042190611f7c565b80601f016020809104026020016040519081016040528092919081815260200182805461044d90611f7c565b801561049a5780601f1061046f5761010080835404028352916020019161049a565b820191906000526020600020905b81548152906001019060200180831161047d57829003601f168201915b5050505050905090565b60006104af82610b45565b6004600083815260200190815260200160002060009054906101000a900473ffffffffffffffffffffffffffffffffffffffff169050919050565b60006104f582610681565b90508073ffffffffffffffffffffffffffffffffffffffff168373ffffffffffffffffffffffffffffffffffffffff1603610565576040517f08c379a000000000000000000000000000000000000000000000000000000000815260040161055c9061201f565b60405180910390fd5b8073ffffffffffffffffffffffffffffffffffffffff16610584610b90565b73ffffffffffffffffffffffffffffffffffffffff1614806105b357506105b2816105ad610b90565b610a47565b5b6105f2576040517f08c379a00000000000000000000000000000000000000000000000000000000081526004016105e9906120b1565b60405180910390fd5b6105fc8383610b98565b505050565b61061261060c610b90565b82610c51565b610651576040517f08c379a000000000000000000000000000000000000000000000000000000000815260040161064890612143565b60405180910390fd5b61065c838383610ce6565b505050565b61067c8383836040518060200160405280600081525061089d565b505050565b6000806002600084815260200190815260200160002060009054906101000a900473ffffffffffffffffffffffffffffffffffffffff169050600073ffffffffffffffffffffffffffffffffffffffff168173ffffffffffffffffffffffffffffffffffffffff1603610729576040517f08c379a0000000000000000000000000000000000000000000000000000000008152600401610720906121af565b60405180910390fd5b80915050919050565b60008073ffffffffffffffffffffffffffffffffffffffff168273ffffffffffffffffffffffffffffffffffffffff16036107a2576040517f08c379a000000000000000000000000000000000000000000000000000000000815260040161079990612241565b60405180910390fd5b600360008373ffffffffffffffffffffffffffffffffffffffff1673ffffffffffffffffffffffffffffffffffffffff168152602001908152602001600020549050919050565b6060600180546107f890611f7c565b80601f016020809104026020016040519081016040528092919081815260200182805461082490611f7c565b80156108715780601f1061084657610100808354040283529160200191610871565b820191906000526020600020905b81548152906001019060200180831161085457829003601f168201915b5050505050905090565b60078060000154905081565b610899610892610b90565b8383610f4c565b5050565b6108ae6108a8610b90565b83610c51565b6108ed576040517f08c379a00000000000000000000000000000000000000000000000000000000081526004016108e490612143565b60405180910390fd5b6108f9848484846110b8565b50505050565b606061090a82610b45565b600060066000848152602001908152602001600020805461092a90611f7c565b80601f016020809104026020016040519081016040528092919081815260200182805461095690611f7c565b80156109a35780601f10610978576101008083540402835291602001916109a3565b820191906000526020600020905b81548152906001019060200180831161098657829003601f168201915b5050505050905060006109b4611114565b905060008151036109c9578192505050610a0c565b6000825111156109fe5780826040516020016109e692919061229d565b60405160208183030381529060405292505050610a0c565b610a078461112b565b925050505b919050565b600080610a1e6007611193565b9050610a2a60076111a1565b610a3433826111b7565b610a3e81846111d5565b80915050919050565b6000600560008473ffffffffffffffffffffffffffffffffffffffff1673ffffffffffffffffffffffffffffffffffffffff16815260200190815260200160002060008373ffffffffffffffffffffffffffffffffffffffff1673ffffffffffffffffffffffffffffffffffffffff16815260200190815260200160002060009054906101000a900460ff16905092915050565b60007f01ffc9a7000000000000000000000000000000000000000000000000000000007bffffffffffffffffffffffffffffffffffffffffffffffffffffffff1916827bffffffffffffffffffffffffffffffffffffffffffffffffffffffff1916149050919050565b610b4e81611249565b610b8d576040517f08c379a0000000000000000000000000000000000000000000000000000000008152600401610b84906121af565b60405180910390fd5b50565b600033905090565b816004600083815260200190815260200160002060006101000a81548173ffffffffffffffffffffffffffffffffffffffff021916908373ffffffffffffffffffffffffffffffffffffffff160217905550808273ffffffffffffffffffffffffffffffffffffffff16610c0b83610681565b73ffffffffffffffffffffffffffffffffffffffff167f8c5be1e5ebec7d5bd14f71427d1e84f3dd0314c0f7b2291e5b200ac8c7c3b92560405160405180910390a45050565b600080610c5d83610681565b90508073ffffffffffffffffffffffffffffffffffffffff168473ffffffffffffffffffffffffffffffffffffffff161480610c9f5750610c9e8185610a47565b5b80610cdd57508373ffffffffffffffffffffffffffffffffffffffff16610cc5846104a4565b73ffffffffffffffffffffffffffffffffffffffff16145b91505092915050565b8273ffffffffffffffffffffffffffffffffffffffff16610d0682610681565b73ffffffffffffffffffffffffffffffffffffffff1614610d5c576040517f08c379a0000000000000000000000000000000000000000000000000000000008152600401610d5390612333565b60405180910390fd5b600073ffffffffffffffffffffffffffffffffffffffff168273ffffffffffffffffffffffffffffffffffffffff1603610dcb576040517f08c379a0000000000000000000000000000000000000000000000000000000008152600401610dc2906123c5565b60405180910390fd5b610dd68383836112b5565b610de1600082610b98565b6001600360008573ffffffffffffffffffffffffffffffffffffffff1673ffffffffffffffffffffffffffffffffffffffff1681526020019081526020016000206000828254610e319190612414565b925050819055506001600360008473ffffffffffffffffffffffffffffffffffffffff1673ffffffffffffffffffffffffffffffffffffffff1681526020019081526020016000206000828254610e889190612448565b92505081905550816002600083815260200190815260200160002060006101000a81548173ffffffffffffffffffffffffffffffffffffffff021916908373ffffffffffffffffffffffffffffffffffffffff160217905550808273ffffffffffffffffffffffffffffffffffffffff168473ffffffffffffffffffffffffffffffffffffffff167fddf252ad1be2c89b69c2b068fc378daa952ba7f163c4a11628f55a4df523b3ef60405160405180910390a4610f478383836112ba565b505050565b8173ffffffffffffffffffffffffffffffffffffffff168373ffffffffffffffffffffffffffffffffffffffff1603610fba576040517f08c379a0000000000000000000000000000000000000000000000000000000008152600401610fb1906124ea565b60405180910390fd5b80600560008573ffffffffffffffffffffffffffffffffffffffff1673ffffffffffffffffffffffffffffffffffffffff16815260200190815260200160002060008473ffffffffffffffffffffffffffffffffffffffff1673ffffffffffffffffffffffffffffffffffffffff16815260200190815260200160002060006101000a81548160ff0219169083151502179055508173ffffffffffffffffffffffffffffffffffffffff168373ffffffffffffffffffffffffffffffffffffffff167f17307eab39ab6107e8899845ad3d59bd9653f200f220920489ca2b5937696c31836040516110ab9190611954565b60405180910390a3505050565b6110c3848484610ce6565b6110cf848484846112bf565b61110e576040517f08c379a00000000000000000000000000000000000000000000000000000000081526004016111059061257c565b60405180910390fd5b50505050565b606060405180602001604052806000815250905090565b606061113682610b45565b6000611140611114565b90506000815111611160576040518060200160405280600081525061118b565b8061116a84611446565b60405160200161117b92919061229d565b6040516020818303038152906040525b915050919050565b600081600001549050919050565b6001816000016000828254019250508190555050565b6111d18282604051806020016040528060008152506115a6565b5050565b6111de82611249565b61121d576040517f08c379a00000000000000000000000000000000000000000000000000000000081526004016112149061260e565b60405180910390fd5b806006600084815260200190815260200160002090805190602001906112449291906117fd565b505050565b60008073ffffffffffffffffffffffffffffffffffffffff166002600084815260200190815260200160002060009054906101000a900473ffffffffffffffffffffffffffffffffffffffff1673ffffffffffffffffffffffffffffffffffffffff1614159050919050565b505050565b505050565b60006112e08473ffffffffffffffffffffffffffffffffffffffff16611601565b15611439578373ffffffffffffffffffffffffffffffffffffffff1663150b7a02611309610b90565b8786866040518563ffffffff1660e01b815260040161132b9493929190612683565b6020604051808303816000875af192505050801561136757506040513d601f19601f8201168201806040525081019061136491906126e4565b60015b6113e9573d8060008114611397576040519150601f19603f3d011682016040523d82523d6000602084013e61139c565b606091505b5060008151036113e1576040517f08c379a00000000000000000000000000000000000000000000000000000000081526004016113d89061257c565b60405180910390fd5b805181602001fd5b63150b7a0260e01b7bffffffffffffffffffffffffffffffffffffffffffffffffffffffff1916817bffffffffffffffffffffffffffffffffffffffffffffffffffffffff19161491505061143e565b600190505b949350505050565b60606000820361148d576040518060400160405280600181526020017f300000000000000000000000000000000000000000000000000000000000000081525090506115a1565b600082905060005b600082146114bf5780806114a890612711565b915050600a826114b89190612788565b9150611495565b60008167ffffffffffffffff8111156114db576114da611c75565b5b6040519080825280601f01601f19166020018201604052801561150d5781602001600182028036833780820191505090505b5090505b6000851461159a576001826115269190612414565b9150600a8561153591906127b9565b60306115419190612448565b60f81b818381518110611557576115566127ea565b5b60200101907effffffffffffffffffffffffffffffffffffffffffffffffffffffffffffff1916908160001a905350600a856115939190612788565b9450611511565b8093505050505b919050565b6115b08383611624565b6115bd60008484846112bf565b6115fc576040517f08c379a00000000000000000000000000000000000000000000000000000000081526004016115f39061257c565b60405180910390fd5b505050565b6000808273ffffffffffffffffffffffffffffffffffffffff163b119050919050565b600073ffffffffffffffffffffffffffffffffffffffff168273ffffffffffffffffffffffffffffffffffffffff1603611693576040517f08c379a000000000000000000000000000000000000000000000000000000000815260040161168a90612865565b60405180910390fd5b61169c81611249565b156116dc576040517f08c379a00000000000000000000000000000000000000000000000000000000081526004016116d3906128d1565b60405180910390fd5b6116e8600083836112b5565b6001600360008473ffffffffffffffffffffffffffffffffffffffff1673ffffffffffffffffffffffffffffffffffffffff16815260200190815260200160002060008282546117389190612448565b92505081905550816002600083815260200190815260200160002060006101000a81548173ffffffffffffffffffffffffffffffffffffffff021916908373ffffffffffffffffffffffffffffffffffffffff160217905550808273ffffffffffffffffffffffffffffffffffffffff16600073ffffffffffffffffffffffffffffffffffffffff167fddf252ad1be2c89b69c2b068fc378daa952ba7f163c4a11628f55a4df523b3ef60405160405180910390a46117f9600083836112ba565b5050565b82805461180990611f7c565b90600052602060002090601f01602090048101928261182b5760008555611872565b82601f1061184457805160ff1916838001178555611872565b82800160010185558215611872579182015b82811115611871578251825591602001919060010190611856565b5b50905061187f9190611883565b5090565b5b8082111561189c576000816000905550600101611884565b5090565b6000604051905090565b600080fd5b600080fd5b60007fffffffff0000000000000000000000000000000000000000000000000000000082169050919050565b6118e9816118b4565b81146118f457600080fd5b50565b600081359050611906816118e0565b92915050565b600060208284031215611922576119216118aa565b5b6000611930848285016118f7565b91505092915050565b60008115159050919050565b61194e81611939565b82525050565b60006020820190506119696000830184611945565b92915050565b600081519050919050565b600082825260208201905092915050565b60005b838110156119a957808201518184015260208101905061198e565b838111156119b8576000848401525b50505050565b6000601f19601f8301169050919050565b60006119da8261196f565b6119e4818561197a565b93506119f481856020860161198b565b6119fd816119be565b840191505092915050565b60006020820190508181036000830152611a2281846119cf565b905092915050565b6000819050919050565b611a3d81611a2a565b8114611a4857600080fd5b50565b600081359050611a5a81611a34565b92915050565b600060208284031215611a7657611a756118aa565b5b6000611a8484828501611a4b565b91505092915050565b600073ffffffffffffffffffffffffffffffffffffffff82169050919050565b6000611ab882611a8d565b9050919050565b611ac881611aad565b82525050565b6000602082019050611ae36000830184611abf565b92915050565b611af281611aad565b8114611afd57600080fd5b50565b600081359050611b0f81611ae9565b92915050565b60008060408385031215611b2c57611b2b6118aa565b5b6000611b3a85828601611b00565b9250506020611b4b85828601611a4b565b9150509250929050565b600080600060608486031215611b6e57611b6d6118aa565b5b6000611b7c86828701611b00565b9350506020611b8d86828701611b00565b9250506040611b9e86828701611a4b565b9150509250925092565b600060208284031215611bbe57611bbd6118aa565b5b6000611bcc84828501611b00565b91505092915050565b611bde81611a2a565b82525050565b6000602082019050611bf96000830184611bd5565b92915050565b611c0881611939565b8114611c1357600080fd5b50565b600081359050611c2581611bff565b92915050565b60008060408385031215611c4257611c416118aa565b5b6000611c5085828601611b00565b9250506020611c6185828601611c16565b9150509250929050565b600080fd5b600080fd5b7f4e487b7100000000000000000000000000000000000000000000000000000000600052604160045260246000fd5b611cad826119be565b810181811067ffffffffffffffff82111715611ccc57611ccb611c75565b5b80604052505050565b6000611cdf6118a0565b9050611ceb8282611ca4565b919050565b600067ffffffffffffffff821115611d0b57611d0a611c75565b5b611d14826119be565b9050602081019050919050565b82818337600083830152505050565b6000611d43611d3e84611cf0565b611cd5565b905082815260208101848484011115611d5f57611d5e611c70565b5b611d6a848285611d21565b509392505050565b600082601f830112611d8757611d86611c6b565b5b8135611d97848260208601611d30565b91505092915050565b60008060008060808587031215611dba57611db96118aa565b5b6000611dc887828801611b00565b9450506020611dd987828801611b00565b9350506040611dea87828801611a4b565b925050606085013567ffffffffffffffff811115611e0b57611e0a6118af565b5b611e1787828801611d72565b91505092959194509250565b600067ffffffffffffffff821115611e3e57611e3d611c75565b5b611e47826119be565b9050602081019050919050565b6000611e67611e6284611e23565b611cd5565b905082815260208101848484011115611e8357611e82611c70565b5b611e8e848285611d21565b509392505050565b600082601f830112611eab57611eaa611c6b565b5b8135611ebb848260208601611e54565b91505092915050565b600060208284031215611eda57611ed96118aa565b5b600082013567ffffffffffffffff811115611ef857611ef76118af565b5b611f0484828501611e96565b91505092915050565b60008060408385031215611f2457611f236118aa565b5b6000611f3285828601611b00565b9250506020611f4385828601611b00565b9150509250929050565b7f4e487b7100000000000000000000000000000000000000000000000000000000600052602260045260246000fd5b60006002820490506001821680611f9457607f821691505b602082108103611fa757611fa6611f4d565b5b50919050565b7f4552433732313a20617070726f76616c20746f2063757272656e74206f776e6560008201527f7200000000000000000000000000000000000000000000000000000000000000602082015250565b600061200960218361197a565b915061201482611fad565b604082019050919050565b6000602082019050818103600083015261203881611ffc565b9050919050565b7f4552433732313a20617070726f76652063616c6c6572206973206e6f7420746f60008201527f6b656e206f776e6572206e6f7220617070726f76656420666f7220616c6c0000602082015250565b600061209b603e8361197a565b91506120a68261203f565b604082019050919050565b600060208201905081810360008301526120ca8161208e565b9050919050565b7f4552433732313a2063616c6c6572206973206e6f7420746f6b656e206f776e6560008201527f72206e6f7220617070726f766564000000000000000000000000000000000000602082015250565b600061212d602e8361197a565b9150612138826120d1565b604082019050919050565b6000602082019050818103600083015261215c81612120565b9050919050565b7f4552433732313a20696e76616c696420746f6b656e2049440000000000000000600082015250565b600061219960188361197a565b91506121a482612163565b602082019050919050565b600060208201905081810360008301526121c88161218c565b9050919050565b7f4552433732313a2061646472657373207a65726f206973206e6f74206120766160008201527f6c6964206f776e65720000000000000000000000000000000000000000000000602082015250565b600061222b60298361197a565b9150612236826121cf565b604082019050919050565b6000602082019050818103600083015261225a8161221e565b9050919050565b600081905092915050565b60006122778261196f565b6122818185612261565b935061229181856020860161198b565b80840191505092915050565b60006122a9828561226c565b91506122b5828461226c565b91508190509392505050565b7f4552433732313a207472616e736665722066726f6d20696e636f72726563742060008201527f6f776e6572000000000000000000000000000000000000000000000000000000602082015250565b600061231d60258361197a565b9150612328826122c1565b604082019050919050565b6000602082019050818103600083015261234c81612310565b9050919050565b7f4552433732313a207472616e7366657220746f20746865207a65726f2061646460008201527f7265737300000000000000000000000000000000000000000000000000000000602082015250565b60006123af60248361197a565b91506123ba82612353565b604082019050919050565b600060208201905081810360008301526123de816123a2565b9050919050565b7f4e487b7100000000000000000000000000000000000000000000000000000000600052601160045260246000fd5b600061241f82611a2a565b915061242a83611a2a565b92508282101561243d5761243c6123e5565b5b828203905092915050565b600061245382611a2a565b915061245e83611a2a565b9250827fffffffffffffffffffffffffffffffffffffffffffffffffffffffffffffffff03821115612493576124926123e5565b5b828201905092915050565b7f4552433732313a20617070726f766520746f2063616c6c657200000000000000600082015250565b60006124d460198361197a565b91506124df8261249e565b602082019050919050565b60006020820190508181036000830152612503816124c7565b9050919050565b7f4552433732313a207472616e7366657220746f206e6f6e20455243373231526560008201527f63656976657220696d706c656d656e7465720000000000000000000000000000602082015250565b600061256660328361197a565b91506125718261250a565b604082019050919050565b6000602082019050818103600083015261259581612559565b9050919050565b7f45524337323155524953746f726167653a2055524920736574206f66206e6f6e60008201527f6578697374656e7420746f6b656e000000000000000000000000000000000000602082015250565b60006125f8602e8361197a565b91506126038261259c565b604082019050919050565b60006020820190508181036000830152612627816125eb565b9050919050565b600081519050919050565b600082825260208201905092915050565b60006126558261262e565b61265f8185612639565b935061266f81856020860161198b565b612678816119be565b840191505092915050565b60006080820190506126986000830187611abf565b6126a56020830186611abf565b6126b26040830185611bd5565b81810360608301526126c4818461264a565b905095945050505050565b6000815190506126de816118e0565b92915050565b6000602082840312156126fa576126f96118aa565b5b6000612708848285016126cf565b91505092915050565b600061271c82611a2a565b91507fffffffffffffffffffffffffffffffffffffffffffffffffffffffffffffffff820361274e5761274d6123e5565b5b600182019050919050565b7f4e487b7100000000000000000000000000000000000000000000000000000000600052601260045260246000fd5b600061279382611a2a565b915061279e83611a2a565b9250826127ae576127ad612759565b5b828204905092915050565b60006127c482611a2a565b91506127cf83611a2a565b9250826127df576127de612759565b5b828206905092915050565b7f4e487b7100000000000000000000000000000000000000000000000000000000600052603260045260246000fd5b7f4552433732313a206d696e7420746f20746865207a65726f2061646472657373600082015250565b600061284f60208361197a565b915061285a82612819565b602082019050919050565b6000602082019050818103600083015261287e81612842565b9050919050565b7f4552433732313a20746f6b656e20616c7265616479206d696e74656400000000600082015250565b60006128bb601c8361197a565b91506128c682612885565b602082019050919050565b600060208201905081810360008301526128ea816128ae565b905091905056fea2646970667358221220a7b7d06068ca73ea9228fd908665baed1f0f464bb03cd74dd76324f1b7d0d26f64736f6c634300080e0033",
  "linkReferences": {},
  "deployedLinkReferences": {}
}