{
  "_format": "hh-sol-artifact-1",
  "contractName": "ColombianDaoMarketContract",
  "sourceName": "src/blockchain/hardhat/contracts/ColombianDaoMarketContract.sol",
  "abi": [
    {
      "inputs": [],
      "stateMutability": "nonpayable",
      "type": "constructor"
    },
    {
      "anonymous": false,
      "inputs": [
        {
          "indexed": false,
          "internalType": "uint256",
          "name": "_itemId",
          "type": "uint256"
        },
        {
          "indexed": true,
          "internalType": "address",
          "name": "_nft",
          "type": "address"
        },
        {
          "indexed": false,
          "internalType": "uint256",
          "name": "_price",
          "type": "uint256"
        },
        {
          "indexed": false,
          "internalType": "uint256",
          "name": "_tokenId",
          "type": "uint256"
        },
        {
          "indexed": true,
          "internalType": "address",
          "name": "_buyer",
          "type": "address"
        }
      ],
      "name": "Bought",
      "type": "event"
    },
    {
      "anonymous": false,
      "inputs": [
        {
          "indexed": false,
          "internalType": "uint256",
          "name": "_itemId",
          "type": "uint256"
        },
        {
          "indexed": true,
          "internalType": "address",
          "name": "_nft",
          "type": "address"
        },
        {
          "indexed": false,
          "internalType": "uint256",
          "name": "_price",
          "type": "uint256"
        },
        {
          "indexed": false,
          "internalType": "uint256",
          "name": "_tokenId",
          "type": "uint256"
        }
      ],
      "name": "Offerd",
      "type": "event"
    },
    {
      "inputs": [],
      "name": "ItemCounter",
      "outputs": [
        {
          "internalType": "uint256",
          "name": "_value",
          "type": "uint256"
        }
      ],
      "stateMutability": "view",
      "type": "function"
    },
    {
      "inputs": [],
      "name": "account",
      "outputs": [
        {
          "internalType": "address payable",
          "name": "",
          "type": "address"
        }
      ],
      "stateMutability": "view",
      "type": "function"
    },
    {
      "inputs": [
        {
          "internalType": "uint256",
          "name": "_itemId",
          "type": "uint256"
        }
      ],
      "name": "buyItem",
      "outputs": [],
      "stateMutability": "payable",
      "type": "function"
    },
    {
      "inputs": [
        {
          "internalType": "uint256",
          "name": "",
          "type": "uint256"
        }
      ],
      "name": "items",
      "outputs": [
        {
          "internalType": "uint256",
          "name": "itemId",
          "type": "uint256"
        },
        {
          "internalType": "contract IERC721",
          "name": "nft",
          "type": "address"
        },
        {
          "internalType": "uint256",
          "name": "tokenId",
          "type": "uint256"
        },
        {
          "internalType": "uint256",
          "name": "price",
          "type": "uint256"
        },
        {
          "internalType": "address payable",
          "name": "seller",
          "type": "address"
        },
        {
          "internalType": "bool",
          "name": "sold",
          "type": "bool"
        }
      ],
      "stateMutability": "view",
      "type": "function"
    },
    {
      "inputs": [
        {
          "internalType": "contract IERC721",
          "name": "_nft",
          "type": "address"
        },
        {
          "internalType": "uint256",
          "name": "_tokenId",
          "type": "uint256"
        },
        {
          "internalType": "uint256",
          "name": "_price",
          "type": "uint256"
        }
      ],
      "name": "sellItem",
      "outputs": [],
      "stateMutability": "nonpayable",
      "type": "function"
    }
  ],
  "bytecode": "0x60a060405234801561001057600080fd5b5060016000819055503373ffffffffffffffffffffffffffffffffffffffff1660808173ffffffffffffffffffffffffffffffffffffffff1681525050608051610e696100766000396000818161012e01528181610152015261068a0152610e696000f3fe60806040526004361061004a5760003560e01c80635dab24201461004f578063689153271461007a578063bfb231d2146100a3578063e7fb74c7146100e5578063f958aada14610101575b600080fd5b34801561005b57600080fd5b5061006461012c565b60405161007191906108cc565b60405180910390f35b34801561008657600080fd5b506100a1600480360381019061009c9190610972565b610150565b005b3480156100af57600080fd5b506100ca60048036038101906100c591906109c5565b610493565b6040516100dc96959493929190610a7b565b60405180910390f35b6100ff60048036038101906100fa91906109c5565b61051c565b005b34801561010d57600080fd5b5061011661085b565b6040516101239190610adc565b60405180910390f35b7f000000000000000000000000000000000000000000000000000000000000000081565b7f000000000000000000000000000000000000000000000000000000000000000073ffffffffffffffffffffffffffffffffffffffff163373ffffffffffffffffffffffffffffffffffffffff16146101de576040517f08c379a00000000000000000000000000000000000000000000000000000000081526004016101d590610b7a565b60405180910390fd5b600260005403610223576040517f08c379a000000000000000000000000000000000000000000000000000000000815260040161021a90610be6565b60405180910390fd5b60026000819055506000811161026e576040517f08c379a000000000000000000000000000000000000000000000000000000000815260040161026590610c52565b60405180910390fd5b6102786001610867565b6000610284600161087d565b90508373ffffffffffffffffffffffffffffffffffffffff166323b872dd3330866040518463ffffffff1660e01b81526004016102c393929190610c81565b600060405180830381600087803b1580156102dd57600080fd5b505af11580156102f1573d6000803e3d6000fd5b505050506040518060c001604052808281526020018573ffffffffffffffffffffffffffffffffffffffff1681526020018481526020018381526020013373ffffffffffffffffffffffffffffffffffffffff16815260200160001515815250600260008381526020019081526020016000206000820151816000015560208201518160010160006101000a81548173ffffffffffffffffffffffffffffffffffffffff021916908373ffffffffffffffffffffffffffffffffffffffff160217905550604082015181600201556060820151816003015560808201518160040160006101000a81548173ffffffffffffffffffffffffffffffffffffffff021916908373ffffffffffffffffffffffffffffffffffffffff16021790555060a08201518160040160146101000a81548160ff0219169083151502179055509050508373ffffffffffffffffffffffffffffffffffffffff167f8144fb26d737c352903da6204e2447cda1f2736b5d0784d325eebb90f9f284e782848660405161047d93929190610cb8565b60405180910390a2506001600081905550505050565b60026020528060005260406000206000915090508060000154908060010160009054906101000a900473ffffffffffffffffffffffffffffffffffffffff16908060020154908060030154908060040160009054906101000a900473ffffffffffffffffffffffffffffffffffffffff16908060040160149054906101000a900460ff16905086565b600260005403610561576040517f08c379a000000000000000000000000000000000000000000000000000000000815260040161055890610be6565b60405180910390fd5b600260008190555060006002600083815260200190815260200160002060030154905060006002600084815260200190815260200160002090506000831180156105b457506105b0600161087d565b8311155b6105f3576040517f08c379a00000000000000000000000000000000000000000000000000000000081526004016105ea90610d3b565b60405180910390fd5b81341015610636576040517f08c379a000000000000000000000000000000000000000000000000000000000815260040161062d90610da7565b60405180910390fd5b8060040160149054906101000a900460ff1615610688576040517f08c379a000000000000000000000000000000000000000000000000000000000815260040161067f90610e13565b60405180910390fd5b7f000000000000000000000000000000000000000000000000000000000000000073ffffffffffffffffffffffffffffffffffffffff166108fc839081150290604051600060405180830381858888f193505050501580156106ee573d6000803e3d6000fd5b508060010160009054906101000a900473ffffffffffffffffffffffffffffffffffffffff1673ffffffffffffffffffffffffffffffffffffffff166323b872dd303384600201546040518463ffffffff1660e01b815260040161075493929190610c81565b600060405180830381600087803b15801561076e57600080fd5b505af1158015610782573d6000803e3d6000fd5b5050505060016002600085815260200190815260200160002060040160146101000a81548160ff0219169083151502179055503373ffffffffffffffffffffffffffffffffffffffff168160010160009054906101000a900473ffffffffffffffffffffffffffffffffffffffff1673ffffffffffffffffffffffffffffffffffffffff167f2e7d4e839ea439fefc52ab6d45432309345048a9d9b912e932c22406eb89657083600001548460030154856002015460405161084693929190610cb8565b60405180910390a35050600160008190555050565b60018060000154905081565b6001816000016000828254019250508190555050565b600081600001549050919050565b600073ffffffffffffffffffffffffffffffffffffffff82169050919050565b60006108b68261088b565b9050919050565b6108c6816108ab565b82525050565b60006020820190506108e160008301846108bd565b92915050565b600080fd5b60006108f78261088b565b9050919050565b6000610909826108ec565b9050919050565b610919816108fe565b811461092457600080fd5b50565b60008135905061093681610910565b92915050565b6000819050919050565b61094f8161093c565b811461095a57600080fd5b50565b60008135905061096c81610946565b92915050565b60008060006060848603121561098b5761098a6108e7565b5b600061099986828701610927565b93505060206109aa8682870161095d565b92505060406109bb8682870161095d565b9150509250925092565b6000602082840312156109db576109da6108e7565b5b60006109e98482850161095d565b91505092915050565b6109fb8161093c565b82525050565b6000819050919050565b6000610a26610a21610a1c8461088b565b610a01565b61088b565b9050919050565b6000610a3882610a0b565b9050919050565b6000610a4a82610a2d565b9050919050565b610a5a81610a3f565b82525050565b60008115159050919050565b610a7581610a60565b82525050565b600060c082019050610a9060008301896109f2565b610a9d6020830188610a51565b610aaa60408301876109f2565b610ab760608301866109f2565b610ac460808301856108bd565b610ad160a0830184610a6c565b979650505050505050565b6000602082019050610af160008301846109f2565b92915050565b600082825260208201905092915050565b7f436f6c6f6d6269616e2044616f204d61726b65743a2063616c6c65722069732060008201527f6e6f7420746865206f776e657200000000000000000000000000000000000000602082015250565b6000610b64602d83610af7565b9150610b6f82610b08565b604082019050919050565b60006020820190508181036000830152610b9381610b57565b9050919050565b7f5265656e7472616e637947756172643a207265656e7472616e742063616c6c00600082015250565b6000610bd0601f83610af7565b9150610bdb82610b9a565b602082019050919050565b60006020820190508181036000830152610bff81610bc3565b9050919050565b7f5072696365206d75737420626520677265617465722074686174203000000000600082015250565b6000610c3c601c83610af7565b9150610c4782610c06565b602082019050919050565b60006020820190508181036000830152610c6b81610c2f565b9050919050565b610c7b816108ec565b82525050565b6000606082019050610c966000830186610c72565b610ca36020830185610c72565b610cb060408301846109f2565b949350505050565b6000606082019050610ccd60008301866109f2565b610cda60208301856109f2565b610ce760408301846109f2565b949350505050565b7f4974656d20646f6e277420657869737400000000000000000000000000000000600082015250565b6000610d25601083610af7565b9150610d3082610cef565b602082019050919050565b60006020820190508181036000830152610d5481610d18565b9050919050565b7f496e73756666696369656e742066756e64730000000000000000000000000000600082015250565b6000610d91601283610af7565b9150610d9c82610d5b565b602082019050919050565b60006020820190508181036000830152610dc081610d84565b9050919050565b7f4974656d20616c726561647920736f6c64000000000000000000000000000000600082015250565b6000610dfd601183610af7565b9150610e0882610dc7565b602082019050919050565b60006020820190508181036000830152610e2c81610df0565b905091905056fea2646970667358221220f95e75fe71c403cfc4f330de329af979dc077351febc0069ea10a27fb4be24d464736f6c634300080f0033",
  "linkReferences": {},
  "deployedLinkReferences": {}
}