{
  "_format": "hh-sol-artifact-1",
  "contractName": "ColombianDaoMarketContract",
  "sourceName": "src/blockchain/hardhat/contracts/ColombianDaoMarketContract.sol",
  "abi": [
    {
      "inputs": [
        {
          "internalType": "string",
          "name": "_name",
          "type": "string"
        },
        {
          "internalType": "string",
          "name": "_symbol",
          "type": "string"
        }
      ],
      "stateMutability": "nonpayable",
      "type": "constructor"
    },
    {
      "anonymous": false,
      "inputs": [
        {
          "indexed": true,
          "internalType": "address",
          "name": "owner",
          "type": "address"
        },
        {
          "indexed": true,
          "internalType": "address",
          "name": "approved",
          "type": "address"
        },
        {
          "indexed": true,
          "internalType": "uint256",
          "name": "tokenId",
          "type": "uint256"
        }
      ],
      "name": "Approval",
      "type": "event"
    },
    {
      "anonymous": false,
      "inputs": [
        {
          "indexed": true,
          "internalType": "address",
          "name": "owner",
          "type": "address"
        },
        {
          "indexed": true,
          "internalType": "address",
          "name": "operator",
          "type": "address"
        },
        {
          "indexed": false,
          "internalType": "bool",
          "name": "approved",
          "type": "bool"
        }
      ],
      "name": "ApprovalForAll",
      "type": "event"
    },
    {
      "anonymous": false,
      "inputs": [
        {
          "indexed": false,
          "internalType": "uint256",
          "name": "_itemId",
          "type": "uint256"
        },
        {
          "indexed": true,
          "internalType": "address",
          "name": "_nft",
          "type": "address"
        },
        {
          "indexed": false,
          "internalType": "uint256",
          "name": "_tokenId",
          "type": "uint256"
        },
        {
          "indexed": false,
          "internalType": "string",
          "name": "_tokenURI",
          "type": "string"
        },
        {
          "indexed": false,
          "internalType": "uint256",
          "name": "_price",
          "type": "uint256"
        },
        {
          "indexed": true,
          "internalType": "address",
          "name": "_buyer",
          "type": "address"
        }
      ],
      "name": "Bought",
      "type": "event"
    },
    {
      "anonymous": false,
      "inputs": [
        {
          "indexed": false,
          "internalType": "uint256",
          "name": "_itemId",
          "type": "uint256"
        },
        {
          "indexed": true,
          "internalType": "address",
          "name": "_nft",
          "type": "address"
        },
        {
          "indexed": false,
          "internalType": "uint256",
          "name": "_tokenId",
          "type": "uint256"
        },
        {
          "indexed": false,
          "internalType": "string",
          "name": "_tokenURI",
          "type": "string"
        },
        {
          "indexed": false,
          "internalType": "uint256",
          "name": "_price",
          "type": "uint256"
        },
        {
          "indexed": true,
          "internalType": "address",
          "name": "_seller",
          "type": "address"
        }
      ],
      "name": "Offerd",
      "type": "event"
    },
    {
      "anonymous": false,
      "inputs": [
        {
          "indexed": true,
          "internalType": "address",
          "name": "from",
          "type": "address"
        },
        {
          "indexed": true,
          "internalType": "address",
          "name": "to",
          "type": "address"
        },
        {
          "indexed": true,
          "internalType": "uint256",
          "name": "tokenId",
          "type": "uint256"
        }
      ],
      "name": "Transfer",
      "type": "event"
    },
    {
      "inputs": [],
      "name": "ItemCounter",
      "outputs": [
        {
          "internalType": "uint256",
          "name": "_value",
          "type": "uint256"
        }
      ],
      "stateMutability": "view",
      "type": "function"
    },
    {
      "inputs": [],
      "name": "account",
      "outputs": [
        {
          "internalType": "address payable",
          "name": "",
          "type": "address"
        }
      ],
      "stateMutability": "view",
      "type": "function"
    },
    {
      "inputs": [
        {
          "internalType": "address",
          "name": "to",
          "type": "address"
        },
        {
          "internalType": "uint256",
          "name": "tokenId",
          "type": "uint256"
        }
      ],
      "name": "approve",
      "outputs": [],
      "stateMutability": "nonpayable",
      "type": "function"
    },
    {
      "inputs": [
        {
          "internalType": "address",
          "name": "owner",
          "type": "address"
        }
      ],
      "name": "balanceOf",
      "outputs": [
        {
          "internalType": "uint256",
          "name": "",
          "type": "uint256"
        }
      ],
      "stateMutability": "view",
      "type": "function"
    },
    {
      "inputs": [
        {
          "internalType": "uint256",
          "name": "_itemId",
          "type": "uint256"
        }
      ],
      "name": "buyItem",
      "outputs": [],
      "stateMutability": "payable",
      "type": "function"
    },
    {
      "inputs": [
        {
          "internalType": "uint256",
          "name": "tokenId",
          "type": "uint256"
        }
      ],
      "name": "getApproved",
      "outputs": [
        {
          "internalType": "address",
          "name": "",
          "type": "address"
        }
      ],
      "stateMutability": "view",
      "type": "function"
    },
    {
      "inputs": [
        {
          "internalType": "address",
          "name": "owner",
          "type": "address"
        },
        {
          "internalType": "address",
          "name": "operator",
          "type": "address"
        }
      ],
      "name": "isApprovedForAll",
      "outputs": [
        {
          "internalType": "bool",
          "name": "",
          "type": "bool"
        }
      ],
      "stateMutability": "view",
      "type": "function"
    },
    {
      "inputs": [
        {
          "internalType": "uint256",
          "name": "",
          "type": "uint256"
        }
      ],
      "name": "items",
      "outputs": [
        {
          "internalType": "uint256",
          "name": "itemId",
          "type": "uint256"
        },
        {
          "internalType": "contract IERC721",
          "name": "nft",
          "type": "address"
        },
        {
          "internalType": "uint256",
          "name": "tokenId",
          "type": "uint256"
        },
        {
          "internalType": "string",
          "name": "tokenURI",
          "type": "string"
        },
        {
          "internalType": "uint256",
          "name": "price",
          "type": "uint256"
        },
        {
          "internalType": "bool",
          "name": "sold",
          "type": "bool"
        },
        {
          "internalType": "address payable",
          "name": "seller",
          "type": "address"
        }
      ],
      "stateMutability": "view",
      "type": "function"
    },
    {
      "inputs": [
        {
          "internalType": "string",
          "name": "_tokenURI",
          "type": "string"
        }
      ],
      "name": "mint",
      "outputs": [
        {
          "internalType": "uint256",
          "name": "",
          "type": "uint256"
        }
      ],
      "stateMutability": "nonpayable",
      "type": "function"
    },
    {
      "inputs": [],
      "name": "name",
      "outputs": [
        {
          "internalType": "string",
          "name": "",
          "type": "string"
        }
      ],
      "stateMutability": "view",
      "type": "function"
    },
    {
      "inputs": [
        {
          "internalType": "uint256",
          "name": "tokenId",
          "type": "uint256"
        }
      ],
      "name": "ownerOf",
      "outputs": [
        {
          "internalType": "address",
          "name": "",
          "type": "address"
        }
      ],
      "stateMutability": "view",
      "type": "function"
    },
    {
      "inputs": [
        {
          "internalType": "address",
          "name": "from",
          "type": "address"
        },
        {
          "internalType": "address",
          "name": "to",
          "type": "address"
        },
        {
          "internalType": "uint256",
          "name": "tokenId",
          "type": "uint256"
        }
      ],
      "name": "safeTransferFrom",
      "outputs": [],
      "stateMutability": "nonpayable",
      "type": "function"
    },
    {
      "inputs": [
        {
          "internalType": "address",
          "name": "from",
          "type": "address"
        },
        {
          "internalType": "address",
          "name": "to",
          "type": "address"
        },
        {
          "internalType": "uint256",
          "name": "tokenId",
          "type": "uint256"
        },
        {
          "internalType": "bytes",
          "name": "data",
          "type": "bytes"
        }
      ],
      "name": "safeTransferFrom",
      "outputs": [],
      "stateMutability": "nonpayable",
      "type": "function"
    },
    {
      "inputs": [
        {
          "internalType": "contract IERC721",
          "name": "_nft",
          "type": "address"
        },
        {
          "internalType": "uint256",
          "name": "_tokenId",
          "type": "uint256"
        },
        {
          "internalType": "uint256",
          "name": "_price",
          "type": "uint256"
        }
      ],
      "name": "sellItem",
      "outputs": [],
      "stateMutability": "nonpayable",
      "type": "function"
    },
    {
      "inputs": [
        {
          "internalType": "address",
          "name": "operator",
          "type": "address"
        },
        {
          "internalType": "bool",
          "name": "approved",
          "type": "bool"
        }
      ],
      "name": "setApprovalForAll",
      "outputs": [],
      "stateMutability": "nonpayable",
      "type": "function"
    },
    {
      "inputs": [
        {
          "internalType": "bytes4",
          "name": "interfaceId",
          "type": "bytes4"
        }
      ],
      "name": "supportsInterface",
      "outputs": [
        {
          "internalType": "bool",
          "name": "",
          "type": "bool"
        }
      ],
      "stateMutability": "view",
      "type": "function"
    },
    {
      "inputs": [],
      "name": "symbol",
      "outputs": [
        {
          "internalType": "string",
          "name": "",
          "type": "string"
        }
      ],
      "stateMutability": "view",
      "type": "function"
    },
    {
      "inputs": [],
      "name": "tokenIdCounter",
      "outputs": [
        {
          "internalType": "uint256",
          "name": "_value",
          "type": "uint256"
        }
      ],
      "stateMutability": "view",
      "type": "function"
    },
    {
      "inputs": [
        {
          "internalType": "uint256",
          "name": "tokenId",
          "type": "uint256"
        }
      ],
      "name": "tokenURI",
      "outputs": [
        {
          "internalType": "string",
          "name": "",
          "type": "string"
        }
      ],
      "stateMutability": "view",
      "type": "function"
    },
    {
      "inputs": [
        {
          "internalType": "uint256",
          "name": "",
          "type": "uint256"
        }
      ],
      "name": "tokens",
      "outputs": [
        {
          "internalType": "uint256",
          "name": "id",
          "type": "uint256"
        },
        {
          "internalType": "string",
          "name": "URI",
          "type": "string"
        }
      ],
      "stateMutability": "view",
      "type": "function"
    },
    {
      "inputs": [],
      "name": "totalAsserts",
      "outputs": [
        {
          "internalType": "uint256",
          "name": "",
          "type": "uint256"
        }
      ],
      "stateMutability": "view",
      "type": "function"
    },
    {
      "inputs": [
        {
          "internalType": "address",
          "name": "from",
          "type": "address"
        },
        {
          "internalType": "address",
          "name": "to",
          "type": "address"
        },
        {
          "internalType": "uint256",
          "name": "tokenId",
          "type": "uint256"
        }
      ],
      "name": "transferFrom",
      "outputs": [],
      "stateMutability": "nonpayable",
      "type": "function"
    },
    {
      "inputs": [],
      "name": "withdraw",
      "outputs": [],
      "stateMutability": "payable",
      "type": "function"
    }
  ],
  "bytecode": "0x60a06040523480156200001157600080fd5b50604051620044fd380380620044fd833981810160405281019062000037919062000240565b818181600090816200004a919062000510565b5080600190816200005c919062000510565b50505060016007819055503373ffffffffffffffffffffffffffffffffffffffff1660808173ffffffffffffffffffffffffffffffffffffffff16815250505050620005f7565b6000604051905090565b600080fd5b600080fd5b600080fd5b600080fd5b6000601f19601f8301169050919050565b7f4e487b7100000000000000000000000000000000000000000000000000000000600052604160045260246000fd5b6200010c82620000c1565b810181811067ffffffffffffffff821117156200012e576200012d620000d2565b5b80604052505050565b600062000143620000a3565b905062000151828262000101565b919050565b600067ffffffffffffffff821115620001745762000173620000d2565b5b6200017f82620000c1565b9050602081019050919050565b60005b83811015620001ac5780820151818401526020810190506200018f565b83811115620001bc576000848401525b50505050565b6000620001d9620001d38462000156565b62000137565b905082815260208101848484011115620001f857620001f7620000bc565b5b620002058482856200018c565b509392505050565b600082601f830112620002255762000224620000b7565b5b815162000237848260208601620001c2565b91505092915050565b600080604083850312156200025a5762000259620000ad565b5b600083015167ffffffffffffffff8111156200027b576200027a620000b2565b5b62000289858286016200020d565b925050602083015167ffffffffffffffff811115620002ad57620002ac620000b2565b5b620002bb858286016200020d565b9150509250929050565b600081519050919050565b7f4e487b7100000000000000000000000000000000000000000000000000000000600052602260045260246000fd5b600060028204905060018216806200031857607f821691505b6020821081036200032e576200032d620002d0565b5b50919050565b60008190508160005260206000209050919050565b60006020601f8301049050919050565b600082821b905092915050565b600060088302620003987fffffffffffffffffffffffffffffffffffffffffffffffffffffffffffffffff8262000359565b620003a4868362000359565b95508019841693508086168417925050509392505050565b6000819050919050565b6000819050919050565b6000620003f1620003eb620003e584620003bc565b620003c6565b620003bc565b9050919050565b6000819050919050565b6200040d83620003d0565b620004256200041c82620003f8565b84845462000366565b825550505050565b600090565b6200043c6200042d565b6200044981848462000402565b505050565b5b8181101562000471576200046560008262000432565b6001810190506200044f565b5050565b601f821115620004c0576200048a8162000334565b620004958462000349565b81016020851015620004a5578190505b620004bd620004b48562000349565b8301826200044e565b50505b505050565b600082821c905092915050565b6000620004e560001984600802620004c5565b1980831691505092915050565b6000620005008383620004d2565b9150826002028217905092915050565b6200051b82620002c5565b67ffffffffffffffff811115620005375762000536620000d2565b5b620005438254620002ff565b6200055082828562000475565b600060209050601f83116001811462000588576000841562000573578287015190505b6200057f8582620004f2565b865550620005ef565b601f198416620005988662000334565b60005b82811015620005c2578489015182556001820191506020850194506020810190506200059b565b86831015620005e25784890151620005de601f891682620004d2565b8355505b6001600288020188555050505b505050505050565b608051613ec762000636600039600081816108c20152818161099d01528181610ada01528181610baf015281816113ec015261166e0152613ec76000f3fe6080604052600436106101405760003560e01c806370a08231116100b6578063c87b56dd1161006f578063c87b56dd14610466578063d85d3d27146104a3578063e5c65d30146104e0578063e7fb74c71461050b578063e985e9c514610527578063f958aada1461056457610140565b806370a082311461033e57806395d89b411461037b57806398bdf6f5146103a6578063a22cb465146103d1578063b88d4fde146103fa578063bfb231d21461042357610140565b80633ccfd60b116101085780633ccfd60b1461023c57806342842e0e146102465780634f64b2be1461026f5780635dab2420146102ad5780636352211e146102d8578063689153271461031557610140565b806301ffc9a71461014557806306fdde0314610182578063081812fc146101ad578063095ea7b3146101ea57806323b872dd14610213575b600080fd5b34801561015157600080fd5b5061016c60048036038101906101679190612735565b61058f565b604051610179919061277d565b60405180910390f35b34801561018e57600080fd5b50610197610671565b6040516101a49190612831565b60405180910390f35b3480156101b957600080fd5b506101d460048036038101906101cf9190612889565b610703565b6040516101e191906128f7565b60405180910390f35b3480156101f657600080fd5b50610211600480360381019061020c919061293e565b610749565b005b34801561021f57600080fd5b5061023a6004803603810190610235919061297e565b610860565b005b6102446108c0565b005b34801561025257600080fd5b5061026d6004803603810190610268919061297e565b610a0c565b005b34801561027b57600080fd5b5061029660048036038101906102919190612889565b610a2c565b6040516102a49291906129e0565b60405180910390f35b3480156102b957600080fd5b506102c2610ad8565b6040516102cf9190612a31565b60405180910390f35b3480156102e457600080fd5b506102ff60048036038101906102fa9190612889565b610afc565b60405161030c91906128f7565b60405180910390f35b34801561032157600080fd5b5061033c60048036038101906103379190612a8a565b610bad565b005b34801561034a57600080fd5b5061036560048036038101906103609190612add565b610ff2565b6040516103729190612b0a565b60405180910390f35b34801561038757600080fd5b506103906110a9565b60405161039d9190612831565b60405180910390f35b3480156103b257600080fd5b506103bb61113b565b6040516103c89190612b0a565b60405180910390f35b3480156103dd57600080fd5b506103f860048036038101906103f39190612b51565b611147565b005b34801561040657600080fd5b50610421600480360381019061041c9190612cc6565b61115d565b005b34801561042f57600080fd5b5061044a60048036038101906104459190612889565b6111bf565b60405161045d9796959493929190612da8565b60405180910390f35b34801561047257600080fd5b5061048d60048036038101906104889190612889565b6112d6565b60405161049a9190612831565b60405180910390f35b3480156104af57600080fd5b506104ca60048036038101906104c59190612ebf565b6113e8565b6040516104d79190612b0a565b60405180910390f35b3480156104ec57600080fd5b506104f56114f8565b6040516105029190612b0a565b60405180910390f35b61052560048036038101906105209190612889565b611500565b005b34801561053357600080fd5b5061054e60048036038101906105499190612f08565b61190e565b60405161055b919061277d565b60405180910390f35b34801561057057600080fd5b506105796119a2565b6040516105869190612b0a565b60405180910390f35b60007f80ac58cd000000000000000000000000000000000000000000000000000000007bffffffffffffffffffffffffffffffffffffffffffffffffffffffff1916827bffffffffffffffffffffffffffffffffffffffffffffffffffffffff1916148061065a57507f5b5e139f000000000000000000000000000000000000000000000000000000007bffffffffffffffffffffffffffffffffffffffffffffffffffffffff1916827bffffffffffffffffffffffffffffffffffffffffffffffffffffffff1916145b8061066a5750610669826119ae565b5b9050919050565b60606000805461068090612f77565b80601f01602080910402602001604051908101604052809291908181526020018280546106ac90612f77565b80156106f95780601f106106ce576101008083540402835291602001916106f9565b820191906000526020600020905b8154815290600101906020018083116106dc57829003601f168201915b5050505050905090565b600061070e82611a18565b6004600083815260200190815260200160002060009054906101000a900473ffffffffffffffffffffffffffffffffffffffff169050919050565b600061075482610afc565b90508073ffffffffffffffffffffffffffffffffffffffff168373ffffffffffffffffffffffffffffffffffffffff16036107c4576040517f08c379a00000000000000000000000000000000000000000000000000000000081526004016107bb9061301a565b60405180910390fd5b8073ffffffffffffffffffffffffffffffffffffffff166107e3611a63565b73ffffffffffffffffffffffffffffffffffffffff16148061081257506108118161080c611a63565b61190e565b5b610851576040517f08c379a0000000000000000000000000000000000000000000000000000000008152600401610848906130ac565b60405180910390fd5b61085b8383611a6b565b505050565b61087161086b611a63565b82611b24565b6108b0576040517f08c379a00000000000000000000000000000000000000000000000000000000081526004016108a79061313e565b60405180910390fd5b6108bb838383611bb9565b505050565b7f000000000000000000000000000000000000000000000000000000000000000073ffffffffffffffffffffffffffffffffffffffff163373ffffffffffffffffffffffffffffffffffffffff161461094e576040517f08c379a0000000000000000000000000000000000000000000000000000000008152600401610945906131d0565b60405180910390fd5b600260075403610993576040517f08c379a000000000000000000000000000000000000000000000000000000000815260040161098a9061323c565b60405180910390fd5b60026007819055507f000000000000000000000000000000000000000000000000000000000000000073ffffffffffffffffffffffffffffffffffffffff166108fc479081150290604051600060405180830381858888f19350505050158015610a01573d6000803e3d6000fd5b506001600781905550565b610a278383836040518060200160405280600081525061115d565b505050565b600b602052806000526040600020600091509050806000015490806001018054610a5590612f77565b80601f0160208091040260200160405190810160405280929190818152602001828054610a8190612f77565b8015610ace5780601f10610aa357610100808354040283529160200191610ace565b820191906000526020600020905b815481529060010190602001808311610ab157829003601f168201915b5050505050905082565b7f000000000000000000000000000000000000000000000000000000000000000081565b6000806002600084815260200190815260200160002060009054906101000a900473ffffffffffffffffffffffffffffffffffffffff169050600073ffffffffffffffffffffffffffffffffffffffff168173ffffffffffffffffffffffffffffffffffffffff1603610ba4576040517f08c379a0000000000000000000000000000000000000000000000000000000008152600401610b9b906132a8565b60405180910390fd5b80915050919050565b7f000000000000000000000000000000000000000000000000000000000000000073ffffffffffffffffffffffffffffffffffffffff163373ffffffffffffffffffffffffffffffffffffffff1614610c3b576040517f08c379a0000000000000000000000000000000000000000000000000000000008152600401610c32906131d0565b60405180910390fd5b600260075403610c80576040517f08c379a0000000000000000000000000000000000000000000000000000000008152600401610c779061323c565b60405180910390fd5b600260078190555060008111610ccb576040517f08c379a0000000000000000000000000000000000000000000000000000000008152600401610cc290613314565b60405180910390fd5b610cd56008611e1f565b6000610ce16008611e35565b90508373ffffffffffffffffffffffffffffffffffffffff166323b872dd3330866040518463ffffffff1660e01b8152600401610d2093929190613334565b600060405180830381600087803b158015610d3a57600080fd5b505af1158015610d4e573d6000803e3d6000fd5b505050506000600b600085815260200190815260200160002060405180604001604052908160008201548152602001600182018054610d8c90612f77565b80601f0160208091040260200160405190810160405280929190818152602001828054610db890612f77565b8015610e055780601f10610dda57610100808354040283529160200191610e05565b820191906000526020600020905b815481529060010190602001808311610de857829003601f168201915b505050505081525050905060006040518060e001604052808481526020018773ffffffffffffffffffffffffffffffffffffffff168152602001868152602001836020015181526020018581526020016000151581526020013373ffffffffffffffffffffffffffffffffffffffff16815250905080600a60008581526020019081526020016000206000820151816000015560208201518160010160006101000a81548173ffffffffffffffffffffffffffffffffffffffff021916908373ffffffffffffffffffffffffffffffffffffffff160217905550604082015181600201556060820151816003019081610efe919061350d565b506080820151816004015560a08201518160050160006101000a81548160ff02191690831515021790555060c08201518160050160016101000a81548173ffffffffffffffffffffffffffffffffffffffff021916908373ffffffffffffffffffffffffffffffffffffffff1602179055509050503373ffffffffffffffffffffffffffffffffffffffff168673ffffffffffffffffffffffffffffffffffffffff167ffbb702af9404f72d4778d0a1a80c9c80e330025cf49efc62679bf95f636a4be78588866020015189604051610fda94939291906135df565b60405180910390a35050506001600781905550505050565b60008073ffffffffffffffffffffffffffffffffffffffff168273ffffffffffffffffffffffffffffffffffffffff1603611062576040517f08c379a00000000000000000000000000000000000000000000000000000000081526004016110599061369d565b60405180910390fd5b600360008373ffffffffffffffffffffffffffffffffffffffff1673ffffffffffffffffffffffffffffffffffffffff168152602001908152602001600020549050919050565b6060600180546110b890612f77565b80601f01602080910402602001604051908101604052809291908181526020018280546110e490612f77565b80156111315780601f1061110657610100808354040283529160200191611131565b820191906000526020600020905b81548152906001019060200180831161111457829003601f168201915b5050505050905090565b60098060000154905081565b611159611152611a63565b8383611e43565b5050565b61116e611168611a63565b83611b24565b6111ad576040517f08c379a00000000000000000000000000000000000000000000000000000000081526004016111a49061313e565b60405180910390fd5b6111b984848484611faf565b50505050565b600a6020528060005260406000206000915090508060000154908060010160009054906101000a900473ffffffffffffffffffffffffffffffffffffffff169080600201549080600301805461121490612f77565b80601f016020809104026020016040519081016040528092919081815260200182805461124090612f77565b801561128d5780601f106112625761010080835404028352916020019161128d565b820191906000526020600020905b81548152906001019060200180831161127057829003601f168201915b5050505050908060040154908060050160009054906101000a900460ff16908060050160019054906101000a900473ffffffffffffffffffffffffffffffffffffffff16905087565b60606112e182611a18565b600060066000848152602001908152602001600020805461130190612f77565b80601f016020809104026020016040519081016040528092919081815260200182805461132d90612f77565b801561137a5780601f1061134f5761010080835404028352916020019161137a565b820191906000526020600020905b81548152906001019060200180831161135d57829003601f168201915b50505050509050600061138b61200b565b905060008151036113a05781925050506113e3565b6000825111156113d55780826040516020016113bd9291906136f9565b604051602081830303815290604052925050506113e3565b6113de84612022565b925050505b919050565b60007f000000000000000000000000000000000000000000000000000000000000000073ffffffffffffffffffffffffffffffffffffffff163373ffffffffffffffffffffffffffffffffffffffff1614611478576040517f08c379a000000000000000000000000000000000000000000000000000000000815260040161146f906131d0565b60405180910390fd5b60006114846009611e35565b90506114906009611e1f565b61149a338261208a565b6114a481846120a8565b604051806040016040528082815260200184815250600b60008381526020019081526020016000206000820151816000015560208201518160010190816114eb919061350d565b5090505080915050919050565b600047905090565b600260075403611545576040517f08c379a000000000000000000000000000000000000000000000000000000000815260040161153c9061323c565b60405180910390fd5b60026007819055506000600a60008381526020019081526020016000206004015490506000600a6000848152602001908152602001600020905060008311801561159857506115946008611e35565b8311155b6115d7576040517f08c379a00000000000000000000000000000000000000000000000000000000081526004016115ce90613769565b60405180910390fd5b8134101561161a576040517f08c379a0000000000000000000000000000000000000000000000000000000008152600401611611906137d5565b60405180910390fd5b8060050160009054906101000a900460ff161561166c576040517f08c379a000000000000000000000000000000000000000000000000000000000815260040161166390613841565b60405180910390fd5b7f000000000000000000000000000000000000000000000000000000000000000073ffffffffffffffffffffffffffffffffffffffff166108fc839081150290604051600060405180830381858888f193505050501580156116d2573d6000803e3d6000fd5b508060010160009054906101000a900473ffffffffffffffffffffffffffffffffffffffff1673ffffffffffffffffffffffffffffffffffffffff166323b872dd303384600201546040518463ffffffff1660e01b815260040161173893929190613334565b600060405180830381600087803b15801561175257600080fd5b505af1158015611766573d6000803e3d6000fd5b505050506000600a6000858152602001908152602001600020905060018160050160006101000a81548160ff0219169083151502179055506000600b600083600201548152602001908152602001600020604051806040016040529081600082015481526020016001820180546117dc90612f77565b80601f016020809104026020016040519081016040528092919081815260200182805461180890612f77565b80156118555780601f1061182a57610100808354040283529160200191611855565b820191906000526020600020905b81548152906001019060200180831161183857829003601f168201915b50505050508152505090503373ffffffffffffffffffffffffffffffffffffffff168360010160009054906101000a900473ffffffffffffffffffffffffffffffffffffffff1673ffffffffffffffffffffffffffffffffffffffff167ff0640a5e49fe03f4079b28dce79dc3ecebd847760c8fed4b6095e30bd1f16c5585600001548660020154856020015188600401546040516118f794939291906135df565b60405180910390a350505050600160078190555050565b6000600560008473ffffffffffffffffffffffffffffffffffffffff1673ffffffffffffffffffffffffffffffffffffffff16815260200190815260200160002060008373ffffffffffffffffffffffffffffffffffffffff1673ffffffffffffffffffffffffffffffffffffffff16815260200190815260200160002060009054906101000a900460ff16905092915050565b60088060000154905081565b60007f01ffc9a7000000000000000000000000000000000000000000000000000000007bffffffffffffffffffffffffffffffffffffffffffffffffffffffff1916827bffffffffffffffffffffffffffffffffffffffffffffffffffffffff1916149050919050565b611a2181612115565b611a60576040517f08c379a0000000000000000000000000000000000000000000000000000000008152600401611a57906132a8565b60405180910390fd5b50565b600033905090565b816004600083815260200190815260200160002060006101000a81548173ffffffffffffffffffffffffffffffffffffffff021916908373ffffffffffffffffffffffffffffffffffffffff160217905550808273ffffffffffffffffffffffffffffffffffffffff16611ade83610afc565b73ffffffffffffffffffffffffffffffffffffffff167f8c5be1e5ebec7d5bd14f71427d1e84f3dd0314c0f7b2291e5b200ac8c7c3b92560405160405180910390a45050565b600080611b3083610afc565b90508073ffffffffffffffffffffffffffffffffffffffff168473ffffffffffffffffffffffffffffffffffffffff161480611b725750611b71818561190e565b5b80611bb057508373ffffffffffffffffffffffffffffffffffffffff16611b9884610703565b73ffffffffffffffffffffffffffffffffffffffff16145b91505092915050565b8273ffffffffffffffffffffffffffffffffffffffff16611bd982610afc565b73ffffffffffffffffffffffffffffffffffffffff1614611c2f576040517f08c379a0000000000000000000000000000000000000000000000000000000008152600401611c26906138d3565b60405180910390fd5b600073ffffffffffffffffffffffffffffffffffffffff168273ffffffffffffffffffffffffffffffffffffffff1603611c9e576040517f08c379a0000000000000000000000000000000000000000000000000000000008152600401611c9590613965565b60405180910390fd5b611ca9838383612181565b611cb4600082611a6b565b6001600360008573ffffffffffffffffffffffffffffffffffffffff1673ffffffffffffffffffffffffffffffffffffffff1681526020019081526020016000206000828254611d0491906139b4565b925050819055506001600360008473ffffffffffffffffffffffffffffffffffffffff1673ffffffffffffffffffffffffffffffffffffffff1681526020019081526020016000206000828254611d5b91906139e8565b92505081905550816002600083815260200190815260200160002060006101000a81548173ffffffffffffffffffffffffffffffffffffffff021916908373ffffffffffffffffffffffffffffffffffffffff160217905550808273ffffffffffffffffffffffffffffffffffffffff168473ffffffffffffffffffffffffffffffffffffffff167fddf252ad1be2c89b69c2b068fc378daa952ba7f163c4a11628f55a4df523b3ef60405160405180910390a4611e1a838383612186565b505050565b6001816000016000828254019250508190555050565b600081600001549050919050565b8173ffffffffffffffffffffffffffffffffffffffff168373ffffffffffffffffffffffffffffffffffffffff1603611eb1576040517f08c379a0000000000000000000000000000000000000000000000000000000008152600401611ea890613a8a565b60405180910390fd5b80600560008573ffffffffffffffffffffffffffffffffffffffff1673ffffffffffffffffffffffffffffffffffffffff16815260200190815260200160002060008473ffffffffffffffffffffffffffffffffffffffff1673ffffffffffffffffffffffffffffffffffffffff16815260200190815260200160002060006101000a81548160ff0219169083151502179055508173ffffffffffffffffffffffffffffffffffffffff168373ffffffffffffffffffffffffffffffffffffffff167f17307eab39ab6107e8899845ad3d59bd9653f200f220920489ca2b5937696c3183604051611fa2919061277d565b60405180910390a3505050565b611fba848484611bb9565b611fc68484848461218b565b612005576040517f08c379a0000000000000000000000000000000000000000000000000000000008152600401611ffc90613b1c565b60405180910390fd5b50505050565b606060405180602001604052806000815250905090565b606061202d82611a18565b600061203761200b565b905060008151116120575760405180602001604052806000815250612082565b8061206184612312565b6040516020016120729291906136f9565b6040516020818303038152906040525b915050919050565b6120a4828260405180602001604052806000815250612472565b5050565b6120b182612115565b6120f0576040517f08c379a00000000000000000000000000000000000000000000000000000000081526004016120e790613bae565b60405180910390fd5b80600660008481526020019081526020016000209081612110919061350d565b505050565b60008073ffffffffffffffffffffffffffffffffffffffff166002600084815260200190815260200160002060009054906101000a900473ffffffffffffffffffffffffffffffffffffffff1673ffffffffffffffffffffffffffffffffffffffff1614159050919050565b505050565b505050565b60006121ac8473ffffffffffffffffffffffffffffffffffffffff166124cd565b15612305578373ffffffffffffffffffffffffffffffffffffffff1663150b7a026121d5611a63565b8786866040518563ffffffff1660e01b81526004016121f79493929190613c23565b6020604051808303816000875af192505050801561223357506040513d601f19601f820116820180604052508101906122309190613c84565b60015b6122b5573d8060008114612263576040519150601f19603f3d011682016040523d82523d6000602084013e612268565b606091505b5060008151036122ad576040517f08c379a00000000000000000000000000000000000000000000000000000000081526004016122a490613b1c565b60405180910390fd5b805181602001fd5b63150b7a0260e01b7bffffffffffffffffffffffffffffffffffffffffffffffffffffffff1916817bffffffffffffffffffffffffffffffffffffffffffffffffffffffff19161491505061230a565b600190505b949350505050565b606060008203612359576040518060400160405280600181526020017f3000000000000000000000000000000000000000000000000000000000000000815250905061246d565b600082905060005b6000821461238b57808061237490613cb1565b915050600a826123849190613d28565b9150612361565b60008167ffffffffffffffff8111156123a7576123a6612b9b565b5b6040519080825280601f01601f1916602001820160405280156123d95781602001600182028036833780820191505090505b5090505b60008514612466576001826123f291906139b4565b9150600a856124019190613d59565b603061240d91906139e8565b60f81b81838151811061242357612422613d8a565b5b60200101907effffffffffffffffffffffffffffffffffffffffffffffffffffffffffffff1916908160001a905350600a8561245f9190613d28565b94506123dd565b8093505050505b919050565b61247c83836124f0565b612489600084848461218b565b6124c8576040517f08c379a00000000000000000000000000000000000000000000000000000000081526004016124bf90613b1c565b60405180910390fd5b505050565b6000808273ffffffffffffffffffffffffffffffffffffffff163b119050919050565b600073ffffffffffffffffffffffffffffffffffffffff168273ffffffffffffffffffffffffffffffffffffffff160361255f576040517f08c379a000000000000000000000000000000000000000000000000000000000815260040161255690613e05565b60405180910390fd5b61256881612115565b156125a8576040517f08c379a000000000000000000000000000000000000000000000000000000000815260040161259f90613e71565b60405180910390fd5b6125b460008383612181565b6001600360008473ffffffffffffffffffffffffffffffffffffffff1673ffffffffffffffffffffffffffffffffffffffff168152602001908152602001600020600082825461260491906139e8565b92505081905550816002600083815260200190815260200160002060006101000a81548173ffffffffffffffffffffffffffffffffffffffff021916908373ffffffffffffffffffffffffffffffffffffffff160217905550808273ffffffffffffffffffffffffffffffffffffffff16600073ffffffffffffffffffffffffffffffffffffffff167fddf252ad1be2c89b69c2b068fc378daa952ba7f163c4a11628f55a4df523b3ef60405160405180910390a46126c560008383612186565b5050565b6000604051905090565b600080fd5b600080fd5b60007fffffffff0000000000000000000000000000000000000000000000000000000082169050919050565b612712816126dd565b811461271d57600080fd5b50565b60008135905061272f81612709565b92915050565b60006020828403121561274b5761274a6126d3565b5b600061275984828501612720565b91505092915050565b60008115159050919050565b61277781612762565b82525050565b6000602082019050612792600083018461276e565b92915050565b600081519050919050565b600082825260208201905092915050565b60005b838110156127d25780820151818401526020810190506127b7565b838111156127e1576000848401525b50505050565b6000601f19601f8301169050919050565b600061280382612798565b61280d81856127a3565b935061281d8185602086016127b4565b612826816127e7565b840191505092915050565b6000602082019050818103600083015261284b81846127f8565b905092915050565b6000819050919050565b61286681612853565b811461287157600080fd5b50565b6000813590506128838161285d565b92915050565b60006020828403121561289f5761289e6126d3565b5b60006128ad84828501612874565b91505092915050565b600073ffffffffffffffffffffffffffffffffffffffff82169050919050565b60006128e1826128b6565b9050919050565b6128f1816128d6565b82525050565b600060208201905061290c60008301846128e8565b92915050565b61291b816128d6565b811461292657600080fd5b50565b60008135905061293881612912565b92915050565b60008060408385031215612955576129546126d3565b5b600061296385828601612929565b925050602061297485828601612874565b9150509250929050565b600080600060608486031215612997576129966126d3565b5b60006129a586828701612929565b93505060206129b686828701612929565b92505060406129c786828701612874565b9150509250925092565b6129da81612853565b82525050565b60006040820190506129f560008301856129d1565b8181036020830152612a0781846127f8565b90509392505050565b6000612a1b826128b6565b9050919050565b612a2b81612a10565b82525050565b6000602082019050612a466000830184612a22565b92915050565b6000612a57826128d6565b9050919050565b612a6781612a4c565b8114612a7257600080fd5b50565b600081359050612a8481612a5e565b92915050565b600080600060608486031215612aa357612aa26126d3565b5b6000612ab186828701612a75565b9350506020612ac286828701612874565b9250506040612ad386828701612874565b9150509250925092565b600060208284031215612af357612af26126d3565b5b6000612b0184828501612929565b91505092915050565b6000602082019050612b1f60008301846129d1565b92915050565b612b2e81612762565b8114612b3957600080fd5b50565b600081359050612b4b81612b25565b92915050565b60008060408385031215612b6857612b676126d3565b5b6000612b7685828601612929565b9250506020612b8785828601612b3c565b9150509250929050565b600080fd5b600080fd5b7f4e487b7100000000000000000000000000000000000000000000000000000000600052604160045260246000fd5b612bd3826127e7565b810181811067ffffffffffffffff82111715612bf257612bf1612b9b565b5b80604052505050565b6000612c056126c9565b9050612c118282612bca565b919050565b600067ffffffffffffffff821115612c3157612c30612b9b565b5b612c3a826127e7565b9050602081019050919050565b82818337600083830152505050565b6000612c69612c6484612c16565b612bfb565b905082815260208101848484011115612c8557612c84612b96565b5b612c90848285612c47565b509392505050565b600082601f830112612cad57612cac612b91565b5b8135612cbd848260208601612c56565b91505092915050565b60008060008060808587031215612ce057612cdf6126d3565b5b6000612cee87828801612929565b9450506020612cff87828801612929565b9350506040612d1087828801612874565b925050606085013567ffffffffffffffff811115612d3157612d306126d8565b5b612d3d87828801612c98565b91505092959194509250565b6000819050919050565b6000612d6e612d69612d64846128b6565b612d49565b6128b6565b9050919050565b6000612d8082612d53565b9050919050565b6000612d9282612d75565b9050919050565b612da281612d87565b82525050565b600060e082019050612dbd600083018a6129d1565b612dca6020830189612d99565b612dd760408301886129d1565b8181036060830152612de981876127f8565b9050612df860808301866129d1565b612e0560a083018561276e565b612e1260c0830184612a22565b98975050505050505050565b600067ffffffffffffffff821115612e3957612e38612b9b565b5b612e42826127e7565b9050602081019050919050565b6000612e62612e5d84612e1e565b612bfb565b905082815260208101848484011115612e7e57612e7d612b96565b5b612e89848285612c47565b509392505050565b600082601f830112612ea657612ea5612b91565b5b8135612eb6848260208601612e4f565b91505092915050565b600060208284031215612ed557612ed46126d3565b5b600082013567ffffffffffffffff811115612ef357612ef26126d8565b5b612eff84828501612e91565b91505092915050565b60008060408385031215612f1f57612f1e6126d3565b5b6000612f2d85828601612929565b9250506020612f3e85828601612929565b9150509250929050565b7f4e487b7100000000000000000000000000000000000000000000000000000000600052602260045260246000fd5b60006002820490506001821680612f8f57607f821691505b602082108103612fa257612fa1612f48565b5b50919050565b7f4552433732313a20617070726f76616c20746f2063757272656e74206f776e6560008201527f7200000000000000000000000000000000000000000000000000000000000000602082015250565b60006130046021836127a3565b915061300f82612fa8565b604082019050919050565b6000602082019050818103600083015261303381612ff7565b9050919050565b7f4552433732313a20617070726f76652063616c6c6572206973206e6f7420746f60008201527f6b656e206f776e6572206e6f7220617070726f76656420666f7220616c6c0000602082015250565b6000613096603e836127a3565b91506130a18261303a565b604082019050919050565b600060208201905081810360008301526130c581613089565b9050919050565b7f4552433732313a2063616c6c6572206973206e6f7420746f6b656e206f776e6560008201527f72206e6f7220617070726f766564000000000000000000000000000000000000602082015250565b6000613128602e836127a3565b9150613133826130cc565b604082019050919050565b600060208201905081810360008301526131578161311b565b9050919050565b7f436f6c6f6d6269616e2044616f204d61726b65743a2063616c6c65722069732060008201527f6e6f7420746865206f776e657200000000000000000000000000000000000000602082015250565b60006131ba602d836127a3565b91506131c58261315e565b604082019050919050565b600060208201905081810360008301526131e9816131ad565b9050919050565b7f5265656e7472616e637947756172643a207265656e7472616e742063616c6c00600082015250565b6000613226601f836127a3565b9150613231826131f0565b602082019050919050565b6000602082019050818103600083015261325581613219565b9050919050565b7f4552433732313a20696e76616c696420746f6b656e2049440000000000000000600082015250565b60006132926018836127a3565b915061329d8261325c565b602082019050919050565b600060208201905081810360008301526132c181613285565b9050919050565b7f5072696365206d75737420626520677265617465722074686174203000000000600082015250565b60006132fe601c836127a3565b9150613309826132c8565b602082019050919050565b6000602082019050818103600083015261332d816132f1565b9050919050565b600060608201905061334960008301866128e8565b61335660208301856128e8565b61336360408301846129d1565b949350505050565b60008190508160005260206000209050919050565b60006020601f8301049050919050565b600082821b905092915050565b6000600883026133cd7fffffffffffffffffffffffffffffffffffffffffffffffffffffffffffffffff82613390565b6133d78683613390565b95508019841693508086168417925050509392505050565b600061340a61340561340084612853565b612d49565b612853565b9050919050565b6000819050919050565b613424836133ef565b61343861343082613411565b84845461339d565b825550505050565b600090565b61344d613440565b61345881848461341b565b505050565b5b8181101561347c57613471600082613445565b60018101905061345e565b5050565b601f8211156134c1576134928161336b565b61349b84613380565b810160208510156134aa578190505b6134be6134b685613380565b83018261345d565b50505b505050565b600082821c905092915050565b60006134e4600019846008026134c6565b1980831691505092915050565b60006134fd83836134d3565b9150826002028217905092915050565b61351682612798565b67ffffffffffffffff81111561352f5761352e612b9b565b5b6135398254612f77565b613544828285613480565b600060209050601f8311600181146135775760008415613565578287015190505b61356f85826134f1565b8655506135d7565b601f1984166135858661336b565b60005b828110156135ad57848901518255600182019150602085019450602081019050613588565b868310156135ca57848901516135c6601f8916826134d3565b8355505b6001600288020188555050505b505050505050565b60006080820190506135f460008301876129d1565b61360160208301866129d1565b818103604083015261361381856127f8565b905061362260608301846129d1565b95945050505050565b7f4552433732313a2061646472657373207a65726f206973206e6f74206120766160008201527f6c6964206f776e65720000000000000000000000000000000000000000000000602082015250565b60006136876029836127a3565b91506136928261362b565b604082019050919050565b600060208201905081810360008301526136b68161367a565b9050919050565b600081905092915050565b60006136d382612798565b6136dd81856136bd565b93506136ed8185602086016127b4565b80840191505092915050565b600061370582856136c8565b915061371182846136c8565b91508190509392505050565b7f4974656d20646f6e277420657869737400000000000000000000000000000000600082015250565b60006137536010836127a3565b915061375e8261371d565b602082019050919050565b6000602082019050818103600083015261378281613746565b9050919050565b7f496e73756666696369656e742066756e64730000000000000000000000000000600082015250565b60006137bf6012836127a3565b91506137ca82613789565b602082019050919050565b600060208201905081810360008301526137ee816137b2565b9050919050565b7f4974656d20616c726561647920736f6c64000000000000000000000000000000600082015250565b600061382b6011836127a3565b9150613836826137f5565b602082019050919050565b6000602082019050818103600083015261385a8161381e565b9050919050565b7f4552433732313a207472616e736665722066726f6d20696e636f72726563742060008201527f6f776e6572000000000000000000000000000000000000000000000000000000602082015250565b60006138bd6025836127a3565b91506138c882613861565b604082019050919050565b600060208201905081810360008301526138ec816138b0565b9050919050565b7f4552433732313a207472616e7366657220746f20746865207a65726f2061646460008201527f7265737300000000000000000000000000000000000000000000000000000000602082015250565b600061394f6024836127a3565b915061395a826138f3565b604082019050919050565b6000602082019050818103600083015261397e81613942565b9050919050565b7f4e487b7100000000000000000000000000000000000000000000000000000000600052601160045260246000fd5b60006139bf82612853565b91506139ca83612853565b9250828210156139dd576139dc613985565b5b828203905092915050565b60006139f382612853565b91506139fe83612853565b9250827fffffffffffffffffffffffffffffffffffffffffffffffffffffffffffffffff03821115613a3357613a32613985565b5b828201905092915050565b7f4552433732313a20617070726f766520746f2063616c6c657200000000000000600082015250565b6000613a746019836127a3565b9150613a7f82613a3e565b602082019050919050565b60006020820190508181036000830152613aa381613a67565b9050919050565b7f4552433732313a207472616e7366657220746f206e6f6e20455243373231526560008201527f63656976657220696d706c656d656e7465720000000000000000000000000000602082015250565b6000613b066032836127a3565b9150613b1182613aaa565b604082019050919050565b60006020820190508181036000830152613b3581613af9565b9050919050565b7f45524337323155524953746f726167653a2055524920736574206f66206e6f6e60008201527f6578697374656e7420746f6b656e000000000000000000000000000000000000602082015250565b6000613b98602e836127a3565b9150613ba382613b3c565b604082019050919050565b60006020820190508181036000830152613bc781613b8b565b9050919050565b600081519050919050565b600082825260208201905092915050565b6000613bf582613bce565b613bff8185613bd9565b9350613c0f8185602086016127b4565b613c18816127e7565b840191505092915050565b6000608082019050613c3860008301876128e8565b613c4560208301866128e8565b613c5260408301856129d1565b8181036060830152613c648184613bea565b905095945050505050565b600081519050613c7e81612709565b92915050565b600060208284031215613c9a57613c996126d3565b5b6000613ca884828501613c6f565b91505092915050565b6000613cbc82612853565b91507fffffffffffffffffffffffffffffffffffffffffffffffffffffffffffffffff8203613cee57613ced613985565b5b600182019050919050565b7f4e487b7100000000000000000000000000000000000000000000000000000000600052601260045260246000fd5b6000613d3382612853565b9150613d3e83612853565b925082613d4e57613d4d613cf9565b5b828204905092915050565b6000613d6482612853565b9150613d6f83612853565b925082613d7f57613d7e613cf9565b5b828206905092915050565b7f4e487b7100000000000000000000000000000000000000000000000000000000600052603260045260246000fd5b7f4552433732313a206d696e7420746f20746865207a65726f2061646472657373600082015250565b6000613def6020836127a3565b9150613dfa82613db9565b602082019050919050565b60006020820190508181036000830152613e1e81613de2565b9050919050565b7f4552433732313a20746f6b656e20616c7265616479206d696e74656400000000600082015250565b6000613e5b601c836127a3565b9150613e6682613e25565b602082019050919050565b60006020820190508181036000830152613e8a81613e4e565b905091905056fea26469706673582212205b13a092651be9a2a51bd9d9398a7737c488c47c2165ea88588de208327f3a5064736f6c634300080f0033",
  "linkReferences": {},
  "deployedLinkReferences": {}
}